{
  "contractName": "Jaslist",
  "abi": [
    {
      "inputs": [],
      "payable": false,
      "stateMutability": "nonpayable",
      "type": "constructor"
    },
    {
      "anonymous": false,
      "inputs": [
        {
          "indexed": false,
          "internalType": "string",
          "name": "name",
          "type": "string"
        },
        {
          "indexed": false,
          "internalType": "string",
          "name": "description",
          "type": "string"
        },
        {
          "indexed": false,
          "internalType": "uint256",
          "name": "sku",
          "type": "uint256"
        },
        {
          "indexed": false,
          "internalType": "uint256",
          "name": "price",
          "type": "uint256"
        },
        {
          "indexed": false,
          "internalType": "address payable",
          "name": "owner",
          "type": "address"
        },
        {
          "indexed": false,
          "internalType": "bool",
          "name": "purchased",
          "type": "bool"
        }
      ],
      "name": "LogItemAdded",
      "type": "event"
    },
    {
      "anonymous": false,
      "inputs": [
        {
          "indexed": false,
          "internalType": "string",
          "name": "name",
          "type": "string"
        },
        {
          "indexed": false,
          "internalType": "string",
          "name": "description",
          "type": "string"
        },
        {
          "indexed": false,
          "internalType": "uint256",
          "name": "sku",
          "type": "uint256"
        },
        {
          "indexed": false,
          "internalType": "uint256",
          "name": "price",
          "type": "uint256"
        },
        {
          "indexed": false,
          "internalType": "address payable",
          "name": "owner",
          "type": "address"
        },
        {
          "indexed": false,
          "internalType": "bool",
          "name": "purchased",
          "type": "bool"
        }
      ],
      "name": "LogItemSold",
      "type": "event"
    },
    {
      "constant": true,
      "inputs": [],
      "name": "itemCount",
      "outputs": [
        {
          "internalType": "uint256",
          "name": "",
          "type": "uint256"
        }
      ],
      "payable": false,
      "stateMutability": "view",
      "type": "function"
    },
    {
      "constant": true,
      "inputs": [
        {
          "internalType": "uint256",
          "name": "",
          "type": "uint256"
        }
      ],
      "name": "items",
      "outputs": [
        {
          "internalType": "string",
          "name": "name",
          "type": "string"
        },
        {
          "internalType": "string",
          "name": "description",
          "type": "string"
        },
        {
          "internalType": "uint256",
          "name": "sku",
          "type": "uint256"
        },
        {
          "internalType": "uint256",
          "name": "price",
          "type": "uint256"
        },
        {
          "internalType": "address payable",
          "name": "owner",
          "type": "address"
        },
        {
          "internalType": "bool",
          "name": "purchased",
          "type": "bool"
        }
      ],
      "payable": false,
      "stateMutability": "view",
      "type": "function"
    },
    {
      "constant": false,
      "inputs": [
        {
          "internalType": "string",
          "name": "_name",
          "type": "string"
        },
        {
          "internalType": "string",
          "name": "_description",
          "type": "string"
        },
        {
          "internalType": "uint256",
          "name": "_price",
          "type": "uint256"
        }
      ],
      "name": "addItem",
      "outputs": [
        {
          "internalType": "bool",
          "name": "",
          "type": "bool"
        }
      ],
      "payable": false,
      "stateMutability": "nonpayable",
      "type": "function"
    },
    {
      "constant": false,
      "inputs": [
        {
          "internalType": "uint256",
          "name": "_sku",
          "type": "uint256"
        }
      ],
      "name": "buyItem",
      "outputs": [],
      "payable": true,
      "stateMutability": "payable",
      "type": "function"
    },
    {
      "constant": true,
      "inputs": [
        {
          "internalType": "uint256",
          "name": "_sku",
          "type": "uint256"
        }
      ],
      "name": "fetchItemName",
      "outputs": [
        {
          "internalType": "string",
          "name": "name",
          "type": "string"
        }
      ],
      "payable": false,
      "stateMutability": "view",
      "type": "function"
    }
  ],
  "bytecode": "0x608060405234801561001057600080fd5b50336000806101000a81548173ffffffffffffffffffffffffffffffffffffffff021916908373ffffffffffffffffffffffffffffffffffffffff1602179055506000600181905550610ea8806100686000396000f3fe60806040526004361061004a5760003560e01c806364432eb81461004f5780636bfb0d01146101d0578063bfb231d2146101fb578063debc467b14610367578063e7fb74c71461041b575b600080fd5b34801561005b57600080fd5b506101b66004803603606081101561007257600080fd5b810190808035906020019064010000000081111561008f57600080fd5b8201836020820111156100a157600080fd5b803590602001918460018302840111640100000000831117156100c357600080fd5b91908080601f016020809104026020016040519081016040528093929190818152602001838380828437600081840152601f19601f8201169050808301925050505050505091929192908035906020019064010000000081111561012657600080fd5b82018360208201111561013857600080fd5b8035906020019184600183028401116401000000008311171561015a57600080fd5b91908080601f016020809104026020016040519081016040528093929190818152602001838380828437600081840152601f19601f82011690508083019250505050505050919291929080359060200190929190505050610449565b604051808215151515815260200191505060405180910390f35b3480156101dc57600080fd5b506101e5610764565b6040518082815260200191505060405180910390f35b34801561020757600080fd5b506102346004803603602081101561021e57600080fd5b810190808035906020019092919050505061076a565b6040518080602001806020018781526020018681526020018573ffffffffffffffffffffffffffffffffffffffff1673ffffffffffffffffffffffffffffffffffffffff16815260200184151515158152602001838103835289818151815260200191508051906020019080838360005b838110156102c05780820151818401526020810190506102a5565b50505050905090810190601f1680156102ed5780820380516001836020036101000a031916815260200191505b50838103825288818151815260200191508051906020019080838360005b8381101561032657808201518184015260208101905061030b565b50505050905090810190601f1680156103535780820380516001836020036101000a031916815260200191505b509850505050505050505060405180910390f35b34801561037357600080fd5b506103a06004803603602081101561038a57600080fd5b8101908080359060200190929190505050610903565b6040518080602001828103825283818151815260200191508051906020019080838360005b838110156103e05780820151818401526020810190506103c5565b50505050905090810190601f16801561040d5780820380516001836020036101000a031916815260200191505b509250505060405180910390f35b6104476004803603602081101561043157600080fd5b81019080803590602001909291905050506109be565b005b600060018060008282540192505081905550600084511161046957600080fd5b6000821161047657600080fd5b6040518060c0016040528085815260200184815260200160015481526020018381526020013373ffffffffffffffffffffffffffffffffffffffff1681526020016000151581525060026000600154815260200190815260200160002060008201518160000190805190602001906104ef929190610dce565b50602082015181600101908051906020019061050c929190610dce565b50604082015181600201556060820151816003015560808201518160040160006101000a81548173ffffffffffffffffffffffffffffffffffffffff021916908373ffffffffffffffffffffffffffffffffffffffff16021790555060a08201518160040160146101000a81548160ff0219169083151502179055509050507f1f01f1a097bc2f44af6e389d4541811341cd95b78fe88f461160f4674b8d2aec8484600260006001548152602001908152602001600020600201548560026000600154815260200190815260200160002060040160009054906101000a900473ffffffffffffffffffffffffffffffffffffffff1660026000600154815260200190815260200160002060040160149054906101000a900460ff166040518080602001806020018781526020018681526020018573ffffffffffffffffffffffffffffffffffffffff1673ffffffffffffffffffffffffffffffffffffffff16815260200184151515158152602001838103835289818151815260200191508051906020019080838360005b838110156106b3578082015181840152602081019050610698565b50505050905090810190601f1680156106e05780820380516001836020036101000a031916815260200191505b50838103825288818151815260200191508051906020019080838360005b838110156107195780820151818401526020810190506106fe565b50505050905090810190601f1680156107465780820380516001836020036101000a031916815260200191505b509850505050505050505060405180910390a1600190509392505050565b60015481565b6002602052806000526040600020600091509050806000018054600181600116156101000203166002900480601f0160208091040260200160405190810160405280929190818152602001828054600181600116156101000203166002900480156108165780601f106107eb57610100808354040283529160200191610816565b820191906000526020600020905b8154815290600101906020018083116107f957829003601f168201915b505050505090806001018054600181600116156101000203166002900480601f0160208091040260200160405190810160405280929190818152602001828054600181600116156101000203166002900480156108b45780601f10610889576101008083540402835291602001916108b4565b820191906000526020600020905b81548152906001019060200180831161089757829003601f168201915b5050505050908060020154908060030154908060040160009054906101000a900473ffffffffffffffffffffffffffffffffffffffff16908060040160149054906101000a900460ff16905086565b6060600260008381526020019081526020016000206000018054600181600116156101000203166002900480601f0160208091040260200160405190810160405280929190818152602001828054600181600116156101000203166002900480156109af5780601f10610984576101008083540402835291602001916109af565b820191906000526020600020905b81548152906001019060200180831161099257829003601f168201915b50505050509050809050919050565b6002600082815260200190815260200160002060030154803410156109e257600080fd5b60006002600084815260200190815260200160002060040160009054906101000a900473ffffffffffffffffffffffffffffffffffffffff16905060008310158015610a3057506001548311155b610a3957600080fd5b600015156002600085815260200190815260200160002060040160149054906101000a900460ff16151514610a6d57600080fd5b3373ffffffffffffffffffffffffffffffffffffffff168173ffffffffffffffffffffffffffffffffffffffff161415610aa657600080fd5b8073ffffffffffffffffffffffffffffffffffffffff166108fc60026000868152602001908152602001600020600301549081150290604051600060405180830381858888f19350505050158015610b02573d6000803e3d6000fd5b50336002600085815260200190815260200160002060040160006101000a81548173ffffffffffffffffffffffffffffffffffffffff021916908373ffffffffffffffffffffffffffffffffffffffff16021790555060016002600085815260200190815260200160002060040160146101000a81548160ff0219169083151502179055507f79470704d7235ad859aca035d956a4162180be3971bccf62886a17deea760df96002600085815260200190815260200160002060000160026000868152602001908152602001600020600101600260008781526020019081526020016000206002015460026000888152602001908152602001600020600301546002600089815260200190815260200160002060040160009054906101000a900473ffffffffffffffffffffffffffffffffffffffff16600260008a815260200190815260200160002060040160149054906101000a900460ff166040518080602001806020018781526020018681526020018573ffffffffffffffffffffffffffffffffffffffff1673ffffffffffffffffffffffffffffffffffffffff16815260200184151515158152602001838103835289818154600181600116156101000203166002900481526020019150805460018160011615610100020316600290048015610d325780601f10610d0757610100808354040283529160200191610d32565b820191906000526020600020905b815481529060010190602001808311610d1557829003601f168201915b5050838103825288818154600181600116156101000203166002900481526020019150805460018160011615610100020316600290048015610db55780601f10610d8a57610100808354040283529160200191610db5565b820191906000526020600020905b815481529060010190602001808311610d9857829003601f168201915b50509850505050505050505060405180910390a1505050565b828054600181600116156101000203166002900490600052602060002090601f016020900481019282601f10610e0f57805160ff1916838001178555610e3d565b82800160010185558215610e3d579182015b82811115610e3c578251825591602001919060010190610e21565b5b509050610e4a9190610e4e565b5090565b610e7091905b80821115610e6c576000816000905550600101610e54565b5090565b9056fea265627a7a723158201872a622c351077c3127d4256a498f4965ba829283307c5e99fe5a9b9fbbb16d64736f6c63430005100032",
  "source": "pragma solidity >=0.5.16 <0.9.0;\n\n// update updateItemPrice to use verifyCaller as modifier\n// if implementing ERC721 standard what functions will functions need to be omitted?\n// how to remove item?\n// need to declare state arrays?\n\ncontract Jaslist {\n\n    // admin can open/close Jaslist; will receive unused eth if closed\n    // address public admin;\n\n    address owner;\n    uint public itemCount; \n\n    mapping (uint => Item) public items;\n    mapping (uint => address) itemToOwner; //maps item to owner\n    // mapping (address => uint) ownerItemCount; //maps amount of items an owner has\n    // mapping (address => User) users;\n\n    // struct User {\n    //     address userAddress,\n    //     bool isSeller,\n    //     bool exists\n    // }\n    \n    struct Item {\n        string name;\n        string description;\n        uint sku;\n        uint price;\n        address payable owner;\n        bool purchased;\n    }\n    \n    // User[] users;\n    // Item[] items; // dynamic Array of Item struct ((Item[] public items;))// getter method is automatically created; other contracts can read from this array\n\n    // enum State {\n    //     ForSale,\n    //     Sold,\n    //     Transferred,\n    //     Received,\n    //     NotForSale\n    // }\n\n    // State public state;\n    \n    constructor() public {\n        owner = msg.sender;\n        itemCount = 0;\n    }\n\n    event LogItemAdded(\n        string name,\n        string description,\n        uint sku,\n        uint price,\n        address payable owner,\n        bool purchased\n    );\n\n    event LogItemSold(\n        string name,\n        string description,\n        uint sku,\n        uint price,\n        address payable owner,\n        bool purchased\n    );\n\n    // event LogItemTransferred(uint sku);\n    // event LogItemReceived(uint sku);\n\n    // modifier isOwner() {\n    //     require(msg.sender == owner);\n    //     _;\n    // }\n\n    modifier paidEnough(uint _price) {\n        require(msg.value >= _price);\n        _;\n    }\n    \n    // modifier forSale(uint _sku) {\n    //     require(items[_sku].owner != address(0));\n    //     require(items[_sku].state == State.ForSale, \"Item is not for sale.\");\n    //     _;\n    // }\n\n    // modifier sold(uint _sku) {\n    //     require(items[_sku].state == State.Sold, \"Item has not been sold.\");\n    //     _;\n    // }\n\n    // modifier transferred(uint _sku) {\n    //     require(items[_sku].state == State.Transferred, \"Item has not yet been transferred.\");\n    //     _;\n    // }\n\n    // modifier checkValue(uint _sku) {\n    //     _;\n    //     uint _price = items[_sku].price;\n    //     uint amountToRefund = msg.value - _price;\n    //     items[_sku].buyer.transfer(amountToRefund);\n    // }\n\n    // modifier verifyCaller(address _address) {\n    //     require(msg.sender == _address);\n    //     _;\n    // }\n\n    // why does function need to return true?\n    function addItem(string memory _name, string memory _description, uint _price) public returns (bool) {\n\n        itemCount += 1;\n        \n        require(bytes(_name).length > 0);\n        require(_price > 0);\n        \n        items[itemCount] = Item({\n            name: _name,\n            description: _description,\n            sku: itemCount,\n            price: _price,\n            owner: msg.sender,\n            purchased: false\n        });\n        \n        emit LogItemAdded(_name, _description, items[itemCount].sku, _price, items[itemCount].owner, items[itemCount].purchased);\n\n        return true;\n    }\n    \n    \n    // test this function; dapp university 1:08:54\n    function buyItem(uint _sku) public payable paidEnough(items[_sku].price) {\n        \n        address payable _seller = items[_sku].owner;\n        \n        require(_sku >= 0 && _sku <= itemCount);\n        require(items[_sku].purchased == false);\n        require(_seller != msg.sender);\n        \n        _seller.transfer(items[_sku].price);\n\n        items[_sku].owner = msg.sender;\n        items[_sku].purchased = true;\n        \n        emit LogItemSold(items[_sku].name, items[_sku].description, items[_sku].sku, items[_sku].price, items[_sku].owner, items[_sku].purchased);\n    }\n\n    // function transferItem(uint _sku) public sold(_sku) {\n    //     items[_sku].state = State.Transferred;\n\n    //     emit LogItemTransferred(_sku);\n    // }\n\n    // function receiveItem(uint _sku) public transferred(_sku) {\n    //     items[_sku].state = State.Received;\n\n    //     emit LogItemReceived(_sku);\n    // }\n\n    function fetchItemName(uint _sku) public view returns (string memory name) {\n        name = items[_sku].name;\n        // description = items[_sku].description;\n        // sku = items[_sku].sku;\n        // price = items[_sku].price;\n        // state = uint(items[_sku].state);\n        // buyer = items[_sku].buyer;\n        // seller = items[_sku].seller;\n        \n        return (name);\n    }\n\n    // function updateItemPrice(uint _sku, uint _price) public isOwner {\n    //     items[_sku].price = _price;\n    // }\n\n    // function itemNotForSale(uint _sku) public {\n    //     items[_sku].state = State.NotForSale;\n    // }\n\n    // function getItemsByOwner {\n\n    // }\n\n}\n\n",
  "sourcePath": "/Users/jsabio/dev/github/blockchain-developer-bootcamp-final-project/contracts/Jaslist.sol",
  "compiler": {
    "name": "solc",
    "version": "0.5.16+commit.9c3226ce.Emscripten.clang"
  },
  "schemaVersion": "3.4.3",
  "updatedAt": "2021-11-17T20:44:21.572Z",
  "networkType": "ethereum",
  "devdoc": {
    "methods": {}
  },
  "userdoc": {
    "methods": {}
  }
}