{
  "contractName": "Jaslist",
  "abi": [
    {
      "inputs": [],
      "stateMutability": "nonpayable",
      "type": "constructor"
    },
    {
      "anonymous": false,
      "inputs": [
        {
          "indexed": false,
          "internalType": "string",
          "name": "_name",
          "type": "string"
        },
        {
          "indexed": false,
          "internalType": "string",
          "name": "_description",
          "type": "string"
        },
        {
          "indexed": false,
          "internalType": "uint256",
          "name": "_sku",
          "type": "uint256"
        },
        {
          "indexed": false,
          "internalType": "uint256",
          "name": "_price",
          "type": "uint256"
        },
        {
          "indexed": false,
          "internalType": "address payable",
          "name": "_itemOwner",
          "type": "address"
        },
        {
          "indexed": false,
          "internalType": "bool",
          "name": "_purchased",
          "type": "bool"
        }
      ],
      "name": "LogItemAdded",
      "type": "event"
    },
    {
      "anonymous": false,
      "inputs": [
        {
          "indexed": false,
          "internalType": "string",
          "name": "_name",
          "type": "string"
        },
        {
          "indexed": false,
          "internalType": "string",
          "name": "_description",
          "type": "string"
        },
        {
          "indexed": false,
          "internalType": "uint256",
          "name": "_sku",
          "type": "uint256"
        },
        {
          "indexed": false,
          "internalType": "uint256",
          "name": "_price",
          "type": "uint256"
        },
        {
          "indexed": false,
          "internalType": "address payable",
          "name": "_itemOwner",
          "type": "address"
        },
        {
          "indexed": false,
          "internalType": "bool",
          "name": "_purchased",
          "type": "bool"
        }
      ],
      "name": "LogItemSold",
      "type": "event"
    },
    {
      "anonymous": false,
      "inputs": [
        {
          "indexed": true,
          "internalType": "address",
          "name": "previousOwner",
          "type": "address"
        },
        {
          "indexed": true,
          "internalType": "address",
          "name": "newOwner",
          "type": "address"
        }
      ],
      "name": "OwnershipTransferred",
      "type": "event"
    },
    {
      "anonymous": false,
      "inputs": [
        {
          "indexed": false,
          "internalType": "address",
          "name": "account",
          "type": "address"
        }
      ],
      "name": "Paused",
      "type": "event"
    },
    {
      "anonymous": false,
      "inputs": [
        {
          "indexed": false,
          "internalType": "address",
          "name": "account",
          "type": "address"
        }
      ],
      "name": "Unpaused",
      "type": "event"
    },
    {
      "inputs": [],
      "name": "itemCount",
      "outputs": [
        {
          "internalType": "uint256",
          "name": "",
          "type": "uint256"
        }
      ],
      "stateMutability": "view",
      "type": "function",
      "constant": true
    },
    {
      "inputs": [
        {
          "internalType": "uint256",
          "name": "",
          "type": "uint256"
        }
      ],
      "name": "items",
      "outputs": [
        {
          "internalType": "string",
          "name": "name",
          "type": "string"
        },
        {
          "internalType": "string",
          "name": "description",
          "type": "string"
        },
        {
          "internalType": "uint256",
          "name": "sku",
          "type": "uint256"
        },
        {
          "internalType": "uint256",
          "name": "price",
          "type": "uint256"
        },
        {
          "internalType": "address payable",
          "name": "itemOwner",
          "type": "address"
        },
        {
          "internalType": "bool",
          "name": "purchased",
          "type": "bool"
        }
      ],
      "stateMutability": "view",
      "type": "function",
      "constant": true
    },
    {
      "inputs": [],
      "name": "owner",
      "outputs": [
        {
          "internalType": "address",
          "name": "",
          "type": "address"
        }
      ],
      "stateMutability": "view",
      "type": "function",
      "constant": true
    },
    {
      "inputs": [],
      "name": "paused",
      "outputs": [
        {
          "internalType": "bool",
          "name": "",
          "type": "bool"
        }
      ],
      "stateMutability": "view",
      "type": "function",
      "constant": true
    },
    {
      "inputs": [],
      "name": "renounceOwnership",
      "outputs": [],
      "stateMutability": "nonpayable",
      "type": "function"
    },
    {
      "inputs": [
        {
          "internalType": "address",
          "name": "newOwner",
          "type": "address"
        }
      ],
      "name": "transferOwnership",
      "outputs": [],
      "stateMutability": "nonpayable",
      "type": "function"
    },
    {
      "inputs": [
        {
          "internalType": "string",
          "name": "_name",
          "type": "string"
        },
        {
          "internalType": "string",
          "name": "_description",
          "type": "string"
        },
        {
          "internalType": "uint256",
          "name": "_price",
          "type": "uint256"
        }
      ],
      "name": "addItem",
      "outputs": [
        {
          "internalType": "bool",
          "name": "",
          "type": "bool"
        }
      ],
      "stateMutability": "nonpayable",
      "type": "function"
    },
    {
      "inputs": [
        {
          "internalType": "uint256",
          "name": "_sku",
          "type": "uint256"
        }
      ],
      "name": "buyItem",
      "outputs": [],
      "stateMutability": "payable",
      "type": "function",
      "payable": true
    },
    {
      "inputs": [
        {
          "internalType": "uint256",
          "name": "_sku",
          "type": "uint256"
        }
      ],
      "name": "removeItem",
      "outputs": [],
      "stateMutability": "nonpayable",
      "type": "function"
    },
    {
      "inputs": [],
      "name": "updateItemPrice",
      "outputs": [],
      "stateMutability": "nonpayable",
      "type": "function"
    },
    {
      "inputs": [],
      "name": "getItemsByOwner",
      "outputs": [],
      "stateMutability": "nonpayable",
      "type": "function"
    }
  ],
  "bytecode": "0x608060405234801561001057600080fd5b5060008060006101000a81548160ff02191690831515021790555061004761003c61005460201b60201c565b61005c60201b60201c565b6000600181905550610121565b600033905090565b60008060019054906101000a900473ffffffffffffffffffffffffffffffffffffffff16905081600060016101000a81548173ffffffffffffffffffffffffffffffffffffffff021916908373ffffffffffffffffffffffffffffffffffffffff1602179055508173ffffffffffffffffffffffffffffffffffffffff168173ffffffffffffffffffffffffffffffffffffffff167f8be0079c531659141344cd1fd0a4f28419497f9722a3daafe3b4186f6b6457e060405160405180910390a35050565b611793806101306000396000f3fe60806040526004361061009c5760003560e01c8063715018a611610064578063715018a6146101745780638da5cb5b1461018b578063bfb231d2146101b6578063e5881724146101f8578063e7fb74c71461020f578063f2fde38b1461022b5761009c565b80633f9eea77146100a15780635c975abb146100b857806364432eb8146100e35780636bfb0d0114610120578063713291711461014b575b600080fd5b3480156100ad57600080fd5b506100b6610254565b005b3480156100c457600080fd5b506100cd610256565b6040516100da9190610f0f565b60405180910390f35b3480156100ef57600080fd5b5061010a600480360381019061010591906110ba565b61026c565b6040516101179190610f0f565b60405180910390f35b34801561012c57600080fd5b506101356104c0565b6040516101429190611154565b60405180910390f35b34801561015757600080fd5b50610172600480360381019061016d919061116f565b6104c6565b005b34801561018057600080fd5b50610189610618565b005b34801561019757600080fd5b506101a06106a0565b6040516101ad91906111dd565b60405180910390f35b3480156101c257600080fd5b506101dd60048036038101906101d8919061116f565b6106c9565b6040516101ef969594939291906112a1565b60405180910390f35b34801561020457600080fd5b5061020d610842565b005b6102296004803603810190610224919061116f565b610844565b005b34801561023757600080fd5b50610252600480360381019061024d919061133c565b610c4c565b005b565b60008060009054906101000a900460ff16905090565b6000610276610256565b156102b6576040517f08c379a00000000000000000000000000000000000000000000000000000000081526004016102ad906113b5565b60405180910390fd5b60018060008282546102c89190611404565b9250508190555060008451116102dd57600080fd5b600082116102ea57600080fd5b6040518060c0016040528085815260200184815260200160015481526020018381526020013373ffffffffffffffffffffffffffffffffffffffff168152602001600015158152506003600060015481526020019081526020016000206000820151816000019080519060200190610363929190610e11565b506020820151816001019080519060200190610380929190610e11565b50604082015181600201556060820151816003015560808201518160040160006101000a81548173ffffffffffffffffffffffffffffffffffffffff021916908373ffffffffffffffffffffffffffffffffffffffff16021790555060a08201518160040160146101000a81548160ff0219169083151502179055509050507f1f01f1a097bc2f44af6e389d4541811341cd95b78fe88f461160f4674b8d2aec8484600360006001548152602001908152602001600020600201548560036000600154815260200190815260200160002060040160009054906101000a900473ffffffffffffffffffffffffffffffffffffffff1660036000600154815260200190815260200160002060040160149054906101000a900460ff166040516104ad969594939291906112a1565b60405180910390a1600190509392505050565b60015481565b3373ffffffffffffffffffffffffffffffffffffffff166003600083815260200190815260200160002060040160009054906101000a900473ffffffffffffffffffffffffffffffffffffffff1673ffffffffffffffffffffffffffffffffffffffff161461053457600080fd5b60036000828152602001908152602001600020600080820160006105589190610e97565b6001820160006105689190610e97565b600282016000905560038201600090556004820160006101000a81549073ffffffffffffffffffffffffffffffffffffffff02191690556004820160146101000a81549060ff021916905550506040518060400160405280601281526020017f7469636b657420756e617661696c61626c650000000000000000000000000000815250600360008381526020019081526020016000206000019080519060200190610614929190610e11565b5050565b610620610d44565b73ffffffffffffffffffffffffffffffffffffffff1661063e6106a0565b73ffffffffffffffffffffffffffffffffffffffff1614610694576040517f08c379a000000000000000000000000000000000000000000000000000000000815260040161068b906114a6565b60405180910390fd5b61069e6000610d4c565b565b60008060019054906101000a900473ffffffffffffffffffffffffffffffffffffffff16905090565b60036020528060005260406000206000915090508060000180546106ec906114f5565b80601f0160208091040260200160405190810160405280929190818152602001828054610718906114f5565b80156107655780601f1061073a57610100808354040283529160200191610765565b820191906000526020600020905b81548152906001019060200180831161074857829003601f168201915b50505050509080600101805461077a906114f5565b80601f01602080910402602001604051908101604052809291908181526020018280546107a6906114f5565b80156107f35780601f106107c8576101008083540402835291602001916107f3565b820191906000526020600020905b8154815290600101906020018083116107d657829003601f168201915b5050505050908060020154908060030154908060040160009054906101000a900473ffffffffffffffffffffffffffffffffffffffff16908060040160149054906101000a900460ff16905086565b565b60036000828152602001908152602001600020600301548034101561086857600080fd5b81600260009054906101000a900460ff16156108b9576040517f08c379a00000000000000000000000000000000000000000000000000000000081526004016108b090611573565b60405180910390fd5b6001600260006101000a81548160ff0219169083151502179055506108dc610256565b1561091c576040517f08c379a0000000000000000000000000000000000000000000000000000000008152600401610913906113b5565b60405180910390fd5b60006003600085815260200190815260200160002060040160009054906101000a900473ffffffffffffffffffffffffffffffffffffffff1690506000841015801561096a57506001548411155b61097357600080fd5b600015156003600086815260200190815260200160002060040160149054906101000a900460ff161515146109a757600080fd5b3373ffffffffffffffffffffffffffffffffffffffff168173ffffffffffffffffffffffffffffffffffffffff1614156109e057600080fd5b8073ffffffffffffffffffffffffffffffffffffffff166108fc60036000878152602001908152602001600020600301549081150290604051600060405180830381858888f19350505050158015610a3c573d6000803e3d6000fd5b50336003600086815260200190815260200160002060040160006101000a81548173ffffffffffffffffffffffffffffffffffffffff021916908373ffffffffffffffffffffffffffffffffffffffff16021790555060016003600086815260200190815260200160002060040160146101000a81548160ff0219169083151502179055507f79470704d7235ad859aca035d956a4162180be3971bccf62886a17deea760df9600360008681526020019081526020016000206000016003600087815260200190815260200160002060010160036000888152602001908152602001600020600201546003600089815260200190815260200160002060030154600360008a815260200190815260200160002060040160009054906101000a900473ffffffffffffffffffffffffffffffffffffffff16600360008b815260200190815260200160002060040160149054906101000a900460ff16604051610ba996959493929190611628565b60405180910390a1506000600260006101000a81548160ff02191690831515021790555060006003600083815260200190815260200160002060030154905060008134610bf69190611697565b905060003390508073ffffffffffffffffffffffffffffffffffffffff166108fc839081150290604051600060405180830381858888f19350505050158015610c43573d6000803e3d6000fd5b50505050505050565b610c54610d44565b73ffffffffffffffffffffffffffffffffffffffff16610c726106a0565b73ffffffffffffffffffffffffffffffffffffffff1614610cc8576040517f08c379a0000000000000000000000000000000000000000000000000000000008152600401610cbf906114a6565b60405180910390fd5b600073ffffffffffffffffffffffffffffffffffffffff168173ffffffffffffffffffffffffffffffffffffffff161415610d38576040517f08c379a0000000000000000000000000000000000000000000000000000000008152600401610d2f9061173d565b60405180910390fd5b610d4181610d4c565b50565b600033905090565b60008060019054906101000a900473ffffffffffffffffffffffffffffffffffffffff16905081600060016101000a81548173ffffffffffffffffffffffffffffffffffffffff021916908373ffffffffffffffffffffffffffffffffffffffff1602179055508173ffffffffffffffffffffffffffffffffffffffff168173ffffffffffffffffffffffffffffffffffffffff167f8be0079c531659141344cd1fd0a4f28419497f9722a3daafe3b4186f6b6457e060405160405180910390a35050565b828054610e1d906114f5565b90600052602060002090601f016020900481019282610e3f5760008555610e86565b82601f10610e5857805160ff1916838001178555610e86565b82800160010185558215610e86579182015b82811115610e85578251825591602001919060010190610e6a565b5b509050610e939190610ed7565b5090565b508054610ea3906114f5565b6000825580601f10610eb55750610ed4565b601f016020900490600052602060002090810190610ed39190610ed7565b5b50565b5b80821115610ef0576000816000905550600101610ed8565b5090565b60008115159050919050565b610f0981610ef4565b82525050565b6000602082019050610f246000830184610f00565b92915050565b6000604051905090565b600080fd5b600080fd5b600080fd5b600080fd5b6000601f19601f8301169050919050565b7f4e487b7100000000000000000000000000000000000000000000000000000000600052604160045260246000fd5b610f9182610f48565b810181811067ffffffffffffffff82111715610fb057610faf610f59565b5b80604052505050565b6000610fc3610f2a565b9050610fcf8282610f88565b919050565b600067ffffffffffffffff821115610fef57610fee610f59565b5b610ff882610f48565b9050602081019050919050565b82818337600083830152505050565b600061102761102284610fd4565b610fb9565b90508281526020810184848401111561104357611042610f43565b5b61104e848285611005565b509392505050565b600082601f83011261106b5761106a610f3e565b5b813561107b848260208601611014565b91505092915050565b6000819050919050565b61109781611084565b81146110a257600080fd5b50565b6000813590506110b48161108e565b92915050565b6000806000606084860312156110d3576110d2610f34565b5b600084013567ffffffffffffffff8111156110f1576110f0610f39565b5b6110fd86828701611056565b935050602084013567ffffffffffffffff81111561111e5761111d610f39565b5b61112a86828701611056565b925050604061113b868287016110a5565b9150509250925092565b61114e81611084565b82525050565b60006020820190506111696000830184611145565b92915050565b60006020828403121561118557611184610f34565b5b6000611193848285016110a5565b91505092915050565b600073ffffffffffffffffffffffffffffffffffffffff82169050919050565b60006111c78261119c565b9050919050565b6111d7816111bc565b82525050565b60006020820190506111f260008301846111ce565b92915050565b600081519050919050565b600082825260208201905092915050565b60005b83811015611232578082015181840152602081019050611217565b83811115611241576000848401525b50505050565b6000611252826111f8565b61125c8185611203565b935061126c818560208601611214565b61127581610f48565b840191505092915050565b600061128b8261119c565b9050919050565b61129b81611280565b82525050565b600060c08201905081810360008301526112bb8189611247565b905081810360208301526112cf8188611247565b90506112de6040830187611145565b6112eb6060830186611145565b6112f86080830185611292565b61130560a0830184610f00565b979650505050505050565b611319816111bc565b811461132457600080fd5b50565b60008135905061133681611310565b92915050565b60006020828403121561135257611351610f34565b5b600061136084828501611327565b91505092915050565b7f5061757361626c653a2070617573656400000000000000000000000000000000600082015250565b600061139f601083611203565b91506113aa82611369565b602082019050919050565b600060208201905081810360008301526113ce81611392565b9050919050565b7f4e487b7100000000000000000000000000000000000000000000000000000000600052601160045260246000fd5b600061140f82611084565b915061141a83611084565b9250827fffffffffffffffffffffffffffffffffffffffffffffffffffffffffffffffff0382111561144f5761144e6113d5565b5b828201905092915050565b7f4f776e61626c653a2063616c6c6572206973206e6f7420746865206f776e6572600082015250565b6000611490602083611203565b915061149b8261145a565b602082019050919050565b600060208201905081810360008301526114bf81611483565b9050919050565b7f4e487b7100000000000000000000000000000000000000000000000000000000600052602260045260246000fd5b6000600282049050600182168061150d57607f821691505b60208210811415611521576115206114c6565b5b50919050565b7f4e6f2072652d656e7472616e6379000000000000000000000000000000000000600082015250565b600061155d600e83611203565b915061156882611527565b602082019050919050565b6000602082019050818103600083015261158c81611550565b9050919050565b60008190508160005260206000209050919050565b600081546115b5816114f5565b6115bf8186611203565b945060018216600081146115da57600181146115ec5761161f565b60ff198316865260208601935061161f565b6115f585611593565b60005b83811015611617578154818901526001820191506020810190506115f8565b808801955050505b50505092915050565b600060c082019050818103600083015261164281896115a8565b9050818103602083015261165681886115a8565b90506116656040830187611145565b6116726060830186611145565b61167f6080830185611292565b61168c60a0830184610f00565b979650505050505050565b60006116a282611084565b91506116ad83611084565b9250828210156116c0576116bf6113d5565b5b828203905092915050565b7f4f776e61626c653a206e6577206f776e657220697320746865207a65726f206160008201527f6464726573730000000000000000000000000000000000000000000000000000602082015250565b6000611727602683611203565b9150611732826116cb565b604082019050919050565b600060208201905081810360008301526117568161171a565b905091905056fea2646970667358221220c147f14748bc036d0a73ebcdf979e410376514b6bc96b2e12861510c6f900ddc64736f6c634300080a0033",
  "immutableReferences": {},
  "source": "/// SPDX-License-Identifier: MIT\npragma solidity >=0.5.16 ^0.8.0;\n\nimport \"@openzeppelin/contracts/security/Pausable.sol\";\nimport \"@openzeppelin/contracts/access/Ownable.sol\";\n\n/// @title Marketplace for second hand ticket resale\n/// @author Jasmine Sabio\n/// @notice Allows a user to sell a ticket or to buy a ticket\n/// @dev Functional calls are implemented without side effects. This contract in herits Open Zeppelin's Pausable and Ownable.\ncontract Jaslist is Pausable, Ownable {\n\n    /// @dev Tracks total amount of items. itemCount is also used for item ID (sku).\n    uint public itemCount;\n    /// @dev Locks or unlocks account to pause account.\n    bool internal locked;\n    \n    /// @dev Maps item number in item count to an item struct.\n    mapping (uint => Item) public items;\n    /// @dev Maps item number in item count to item owner.\n    mapping (uint => address) itemToOwner;\n    \n    struct Item {\n        string name;\n        string description;\n        uint sku;\n        uint price;\n        address payable itemOwner;\n        bool purchased;\n    }\n    \n    constructor() Pausable() Ownable() {\n        itemCount = 0;\n    }\n\n    /// @notice Event emitted when an item is added\n    /// @param _name Item name\n    /// @param _description Item description (location, date)\n    /// @param _sku Item ID (item count)\n    /// @param _price Item price in ETH\n    /// @param _itemOwner Item owner\n    /// @param _purchased Is item purchased?\n    event LogItemAdded(\n        string _name,\n        string _description,\n        uint _sku,\n        uint _price,\n        address payable _itemOwner,\n        bool _purchased\n    );\n\n    /// @notice Event emitted when an item is sold\n    /// @param _name Item name\n    /// @param _description Item description (location, date)\n    /// @param _sku Item ID (item count)\n    /// @param _price Item price in ETH\n    /// @param _itemOwner Item owner\n    /// @param _purchased Is item purchased?\n    event LogItemSold(\n        string _name,\n        string _description,\n        uint _sku,\n        uint _price,\n        address payable _itemOwner,\n        bool _purchased\n    );\n\n    /// @dev Protects function when ETH is transferred from reentrancy attacks\n    modifier noReentrant() {\n        require(!locked, \"No re-entrancy\");\n        locked = true;\n        _;\n        locked = false;\n    }\n    \n    /// @dev Checks if buyer has enough ETH before executing the buying function\n    modifier paidEnough(uint _price) {\n        require(msg.value >= _price);\n        _;\n    }\n\n    /// @dev Refunds excess ETH if buyer paid too much\n    modifier checkValue(uint _sku) {\n        _;\n        uint _price = items[_sku].price;\n        uint amountToRefund = msg.value - _price;\n        address payable buyer = payable(msg.sender);\n        buyer.transfer(amountToRefund);\n    }\n\n    /// @notice Adds item to contract state\n    /// @param _name Item name\n    /// @param _description Item description\n    /// @param _price Item price in ETH\n    function addItem(string memory _name, string memory _description, uint _price) public whenNotPaused() returns (bool) {\n\n        itemCount += 1;\n        \n        require(bytes(_name).length > 0);\n        require(_price > 0);\n        \n        items[itemCount] = Item({\n            name: _name,\n            description: _description,\n            sku: itemCount,\n            price: _price,\n            itemOwner: payable(msg.sender),\n            purchased: false\n        });\n        \n        emit LogItemAdded(_name, _description, items[itemCount].sku, _price, items[itemCount].itemOwner, items[itemCount].purchased);\n\n        return true;\n    }\n    \n    /// @notice Buys item and ETH is transferred from the buyer to the seller\n    /// @param _sku Item ID (item count)\n    function buyItem(uint _sku) public payable paidEnough(items[_sku].price) checkValue(_sku) noReentrant() whenNotPaused() {\n        \n        address payable _seller = items[_sku].itemOwner;\n        \n        require(_sku >= 0 && _sku <= itemCount);\n        require(items[_sku].purchased == false);\n        require(_seller != msg.sender);\n        \n        _seller.transfer(items[_sku].price);\n\n        items[_sku].itemOwner = payable(msg.sender);\n        items[_sku].purchased = true;\n        \n        emit LogItemSold(items[_sku].name, items[_sku].description, items[_sku].sku, items[_sku].price, items[_sku].itemOwner, items[_sku].purchased);\n    }\n\n    /// @dev Pauses contract from further transaction; only executed by contract owner\n    function pauseTransactions() private onlyOwner() {\n        _pause();\n    }\n\n    /// @notice Ticket becomes unavaiable to be purchased\n    /// @param _sku Item ID (item count)\n    /// @dev Clears struct for item and ticket name is updated to \"ticket unavailable\" \n    function removeItem(uint _sku) public {\n        require(items[_sku].itemOwner == msg.sender);\n        delete items[_sku];\n        items[_sku].name = \"ticket unavailable\";\n    }\n\n    /// @notice Updates a seller's item price\n    /// @dev Only item owner can call this\n    function updateItemPrice() public {\n        // TODO: allows seller to update the price of their item\n    }\n\n    /// @notice Loads list of items the user owns\n    function getItemsByOwner() public {\n        // TODO: fetches list of items that the owner has\n    }\n\n}\n\n",
  "sourcePath": "/Users/jsabio/dev/github/blockchain-developer-bootcamp-final-project/contracts/Jaslist.sol",
  "compiler": {
    "name": "solc",
    "version": "0.8.10+commit.fc410830.Emscripten.clang"
  },
  "schemaVersion": "3.4.3",
  "updatedAt": "2021-11-30T17:19:05.128Z",
  "networkType": "ethereum",
  "devdoc": {
    "author": "Jasmine Sabio",
    "details": "Functional calls are implemented without side effects. This contract in herits Open Zeppelin's Pausable and Ownable.",
    "events": {
      "LogItemAdded(string,string,uint256,uint256,address,bool)": {
        "params": {
          "_description": "Item description (location, date)",
          "_itemOwner": "Item owner",
          "_name": "Item name",
          "_price": "Item price in ETH",
          "_purchased": "Is item purchased?",
          "_sku": "Item ID (item count)"
        }
      },
      "LogItemSold(string,string,uint256,uint256,address,bool)": {
        "params": {
          "_description": "Item description (location, date)",
          "_itemOwner": "Item owner",
          "_name": "Item name",
          "_price": "Item price in ETH",
          "_purchased": "Is item purchased?",
          "_sku": "Item ID (item count)"
        }
      }
    },
    "kind": "dev",
    "methods": {
      "addItem(string,string,uint256)": {
        "params": {
          "_description": "Item description",
          "_name": "Item name",
          "_price": "Item price in ETH"
        }
      },
      "buyItem(uint256)": {
        "params": {
          "_sku": "Item ID (item count)"
        }
      },
      "owner()": {
        "details": "Returns the address of the current owner."
      },
      "paused()": {
        "details": "Returns true if the contract is paused, and false otherwise."
      },
      "removeItem(uint256)": {
        "details": "Clears struct for item and ticket name is updated to \"ticket unavailable\" ",
        "params": {
          "_sku": "Item ID (item count)"
        }
      },
      "renounceOwnership()": {
        "details": "Leaves the contract without owner. It will not be possible to call `onlyOwner` functions anymore. Can only be called by the current owner. NOTE: Renouncing ownership will leave the contract without an owner, thereby removing any functionality that is only available to the owner."
      },
      "transferOwnership(address)": {
        "details": "Transfers ownership of the contract to a new account (`newOwner`). Can only be called by the current owner."
      },
      "updateItemPrice()": {
        "details": "Only item owner can call this"
      }
    },
    "stateVariables": {
      "itemCount": {
        "details": "Tracks total amount of items. itemCount is also used for item ID (sku)."
      },
      "itemToOwner": {
        "details": "Maps item number in item count to item owner."
      },
      "items": {
        "details": "Maps item number in item count to an item struct."
      },
      "locked": {
        "details": "Locks or unlocks account to pause account."
      }
    },
    "title": "Marketplace for second hand ticket resale",
    "version": 1
  },
  "userdoc": {
    "events": {
      "LogItemAdded(string,string,uint256,uint256,address,bool)": {
        "notice": "Event emitted when an item is added"
      },
      "LogItemSold(string,string,uint256,uint256,address,bool)": {
        "notice": "Event emitted when an item is sold"
      }
    },
    "kind": "user",
    "methods": {
      "addItem(string,string,uint256)": {
        "notice": "Adds item to contract state"
      },
      "buyItem(uint256)": {
        "notice": "Buys item and ETH is transferred from the buyer to the seller"
      },
      "getItemsByOwner()": {
        "notice": "Loads list of items the user owns"
      },
      "removeItem(uint256)": {
        "notice": "Ticket becomes unavaiable to be purchased"
      },
      "updateItemPrice()": {
        "notice": "Updates a seller's item price"
      }
    },
    "notice": "Allows a user to sell a ticket or to buy a ticket",
    "version": 1
  }
}