{
  "contractName": "Jaslist",
  "abi": [
    {
      "inputs": [],
      "stateMutability": "nonpayable",
      "type": "constructor"
    },
    {
      "anonymous": false,
      "inputs": [
        {
          "indexed": false,
          "internalType": "string",
          "name": "name",
          "type": "string"
        },
        {
          "indexed": false,
          "internalType": "string",
          "name": "description",
          "type": "string"
        },
        {
          "indexed": false,
          "internalType": "uint256",
          "name": "sku",
          "type": "uint256"
        },
        {
          "indexed": false,
          "internalType": "uint256",
          "name": "price",
          "type": "uint256"
        },
        {
          "indexed": false,
          "internalType": "address payable",
          "name": "itemOwner",
          "type": "address"
        },
        {
          "indexed": false,
          "internalType": "bool",
          "name": "purchased",
          "type": "bool"
        }
      ],
      "name": "LogItemAdded",
      "type": "event"
    },
    {
      "anonymous": false,
      "inputs": [
        {
          "indexed": false,
          "internalType": "string",
          "name": "name",
          "type": "string"
        },
        {
          "indexed": false,
          "internalType": "string",
          "name": "description",
          "type": "string"
        },
        {
          "indexed": false,
          "internalType": "uint256",
          "name": "sku",
          "type": "uint256"
        },
        {
          "indexed": false,
          "internalType": "uint256",
          "name": "price",
          "type": "uint256"
        },
        {
          "indexed": false,
          "internalType": "address payable",
          "name": "itemOwner",
          "type": "address"
        },
        {
          "indexed": false,
          "internalType": "bool",
          "name": "purchased",
          "type": "bool"
        }
      ],
      "name": "LogItemSold",
      "type": "event"
    },
    {
      "anonymous": false,
      "inputs": [
        {
          "indexed": true,
          "internalType": "address",
          "name": "previousOwner",
          "type": "address"
        },
        {
          "indexed": true,
          "internalType": "address",
          "name": "newOwner",
          "type": "address"
        }
      ],
      "name": "OwnershipTransferred",
      "type": "event"
    },
    {
      "anonymous": false,
      "inputs": [
        {
          "indexed": false,
          "internalType": "address",
          "name": "account",
          "type": "address"
        }
      ],
      "name": "Paused",
      "type": "event"
    },
    {
      "anonymous": false,
      "inputs": [
        {
          "indexed": false,
          "internalType": "address",
          "name": "account",
          "type": "address"
        }
      ],
      "name": "Unpaused",
      "type": "event"
    },
    {
      "inputs": [],
      "name": "itemCount",
      "outputs": [
        {
          "internalType": "uint256",
          "name": "",
          "type": "uint256"
        }
      ],
      "stateMutability": "view",
      "type": "function"
    },
    {
      "inputs": [
        {
          "internalType": "uint256",
          "name": "",
          "type": "uint256"
        }
      ],
      "name": "items",
      "outputs": [
        {
          "internalType": "string",
          "name": "name",
          "type": "string"
        },
        {
          "internalType": "string",
          "name": "description",
          "type": "string"
        },
        {
          "internalType": "uint256",
          "name": "sku",
          "type": "uint256"
        },
        {
          "internalType": "uint256",
          "name": "price",
          "type": "uint256"
        },
        {
          "internalType": "address payable",
          "name": "itemOwner",
          "type": "address"
        },
        {
          "internalType": "bool",
          "name": "purchased",
          "type": "bool"
        }
      ],
      "stateMutability": "view",
      "type": "function"
    },
    {
      "inputs": [],
      "name": "owner",
      "outputs": [
        {
          "internalType": "address",
          "name": "",
          "type": "address"
        }
      ],
      "stateMutability": "view",
      "type": "function"
    },
    {
      "inputs": [],
      "name": "paused",
      "outputs": [
        {
          "internalType": "bool",
          "name": "",
          "type": "bool"
        }
      ],
      "stateMutability": "view",
      "type": "function"
    },
    {
      "inputs": [],
      "name": "renounceOwnership",
      "outputs": [],
      "stateMutability": "nonpayable",
      "type": "function"
    },
    {
      "inputs": [
        {
          "internalType": "address",
          "name": "newOwner",
          "type": "address"
        }
      ],
      "name": "transferOwnership",
      "outputs": [],
      "stateMutability": "nonpayable",
      "type": "function"
    },
    {
      "inputs": [
        {
          "internalType": "string",
          "name": "_name",
          "type": "string"
        },
        {
          "internalType": "string",
          "name": "_description",
          "type": "string"
        },
        {
          "internalType": "uint256",
          "name": "_price",
          "type": "uint256"
        }
      ],
      "name": "addItem",
      "outputs": [
        {
          "internalType": "bool",
          "name": "",
          "type": "bool"
        }
      ],
      "stateMutability": "nonpayable",
      "type": "function"
    },
    {
      "inputs": [
        {
          "internalType": "uint256",
          "name": "_sku",
          "type": "uint256"
        }
      ],
      "name": "buyItem",
      "outputs": [],
      "stateMutability": "payable",
      "type": "function"
    }
  ],
  "bytecode": "0x608060405234801561001057600080fd5b5060008060006101000a81548160ff02191690831515021790555061004761003c61005460201b60201c565b61005c60201b60201c565b6000600181905550610121565b600033905090565b60008060019054906101000a900473ffffffffffffffffffffffffffffffffffffffff16905081600060016101000a81548173ffffffffffffffffffffffffffffffffffffffff021916908373ffffffffffffffffffffffffffffffffffffffff1602179055508173ffffffffffffffffffffffffffffffffffffffff168173ffffffffffffffffffffffffffffffffffffffff167f8be0079c531659141344cd1fd0a4f28419497f9722a3daafe3b4186f6b6457e060405160405180910390a35050565b6114d5806101306000396000f3fe60806040526004361061007b5760003560e01c80638da5cb5b1161004e5780638da5cb5b1461012a578063bfb231d214610155578063e7fb74c714610197578063f2fde38b146101b35761007b565b80635c975abb1461008057806364432eb8146100ab5780636bfb0d01146100e8578063715018a614610113575b600080fd5b34801561008c57600080fd5b506100956101dc565b6040516100a29190610c85565b60405180910390f35b3480156100b757600080fd5b506100d260048036038101906100cd9190610e30565b6101f2565b6040516100df9190610c85565b60405180910390f35b3480156100f457600080fd5b506100fd610446565b60405161010a9190610eca565b60405180910390f35b34801561011f57600080fd5b5061012861044c565b005b34801561013657600080fd5b5061013f6104d4565b60405161014c9190610f26565b60405180910390f35b34801561016157600080fd5b5061017c60048036038101906101779190610f41565b6104fd565b60405161018e96959493929190611017565b60405180910390f35b6101b160048036038101906101ac9190610f41565b610676565b005b3480156101bf57600080fd5b506101da60048036038101906101d591906110b2565b610a02565b005b60008060009054906101000a900460ff16905090565b60006101fc6101dc565b1561023c576040517f08c379a00000000000000000000000000000000000000000000000000000000081526004016102339061112b565b60405180910390fd5b600180600082825461024e919061117a565b92505081905550600084511161026357600080fd5b6000821161027057600080fd5b6040518060c0016040528085815260200184815260200160015481526020018381526020013373ffffffffffffffffffffffffffffffffffffffff1681526020016000151581525060036000600154815260200190815260200160002060008201518160000190805190602001906102e9929190610bc7565b506020820151816001019080519060200190610306929190610bc7565b50604082015181600201556060820151816003015560808201518160040160006101000a81548173ffffffffffffffffffffffffffffffffffffffff021916908373ffffffffffffffffffffffffffffffffffffffff16021790555060a08201518160040160146101000a81548160ff0219169083151502179055509050507f1f01f1a097bc2f44af6e389d4541811341cd95b78fe88f461160f4674b8d2aec8484600360006001548152602001908152602001600020600201548560036000600154815260200190815260200160002060040160009054906101000a900473ffffffffffffffffffffffffffffffffffffffff1660036000600154815260200190815260200160002060040160149054906101000a900460ff1660405161043396959493929190611017565b60405180910390a1600190509392505050565b60015481565b610454610afa565b73ffffffffffffffffffffffffffffffffffffffff166104726104d4565b73ffffffffffffffffffffffffffffffffffffffff16146104c8576040517f08c379a00000000000000000000000000000000000000000000000000000000081526004016104bf9061121c565b60405180910390fd5b6104d26000610b02565b565b60008060019054906101000a900473ffffffffffffffffffffffffffffffffffffffff16905090565b60036020528060005260406000206000915090508060000180546105209061126b565b80601f016020809104026020016040519081016040528092919081815260200182805461054c9061126b565b80156105995780601f1061056e57610100808354040283529160200191610599565b820191906000526020600020905b81548152906001019060200180831161057c57829003601f168201915b5050505050908060010180546105ae9061126b565b80601f01602080910402602001604051908101604052809291908181526020018280546105da9061126b565b80156106275780601f106105fc57610100808354040283529160200191610627565b820191906000526020600020905b81548152906001019060200180831161060a57829003601f168201915b5050505050908060020154908060030154908060040160009054906101000a900473ffffffffffffffffffffffffffffffffffffffff16908060040160149054906101000a900460ff16905086565b60036000828152602001908152602001600020600301548034101561069a57600080fd5b600260009054906101000a900460ff16156106ea576040517f08c379a00000000000000000000000000000000000000000000000000000000081526004016106e1906112e9565b60405180910390fd5b6001600260006101000a81548160ff02191690831515021790555061070d6101dc565b1561074d576040517f08c379a00000000000000000000000000000000000000000000000000000000081526004016107449061112b565b60405180910390fd5b60006003600084815260200190815260200160002060040160009054906101000a900473ffffffffffffffffffffffffffffffffffffffff1690506000831015801561079b57506001548311155b6107a457600080fd5b600015156003600085815260200190815260200160002060040160149054906101000a900460ff161515146107d857600080fd5b3373ffffffffffffffffffffffffffffffffffffffff168173ffffffffffffffffffffffffffffffffffffffff16141561081157600080fd5b8073ffffffffffffffffffffffffffffffffffffffff166108fc60036000868152602001908152602001600020600301549081150290604051600060405180830381858888f1935050505015801561086d573d6000803e3d6000fd5b50336003600085815260200190815260200160002060040160006101000a81548173ffffffffffffffffffffffffffffffffffffffff021916908373ffffffffffffffffffffffffffffffffffffffff16021790555060016003600085815260200190815260200160002060040160146101000a81548160ff0219169083151502179055507f79470704d7235ad859aca035d956a4162180be3971bccf62886a17deea760df96003600085815260200190815260200160002060000160036000868152602001908152602001600020600101600360008781526020019081526020016000206002015460036000888152602001908152602001600020600301546003600089815260200190815260200160002060040160009054906101000a900473ffffffffffffffffffffffffffffffffffffffff16600360008a815260200190815260200160002060040160149054906101000a900460ff166040516109da9695949392919061139e565b60405180910390a1506000600260006101000a81548160ff0219169083151502179055505050565b610a0a610afa565b73ffffffffffffffffffffffffffffffffffffffff16610a286104d4565b73ffffffffffffffffffffffffffffffffffffffff1614610a7e576040517f08c379a0000000000000000000000000000000000000000000000000000000008152600401610a759061121c565b60405180910390fd5b600073ffffffffffffffffffffffffffffffffffffffff168173ffffffffffffffffffffffffffffffffffffffff161415610aee576040517f08c379a0000000000000000000000000000000000000000000000000000000008152600401610ae59061147f565b60405180910390fd5b610af781610b02565b50565b600033905090565b60008060019054906101000a900473ffffffffffffffffffffffffffffffffffffffff16905081600060016101000a81548173ffffffffffffffffffffffffffffffffffffffff021916908373ffffffffffffffffffffffffffffffffffffffff1602179055508173ffffffffffffffffffffffffffffffffffffffff168173ffffffffffffffffffffffffffffffffffffffff167f8be0079c531659141344cd1fd0a4f28419497f9722a3daafe3b4186f6b6457e060405160405180910390a35050565b828054610bd39061126b565b90600052602060002090601f016020900481019282610bf55760008555610c3c565b82601f10610c0e57805160ff1916838001178555610c3c565b82800160010185558215610c3c579182015b82811115610c3b578251825591602001919060010190610c20565b5b509050610c499190610c4d565b5090565b5b80821115610c66576000816000905550600101610c4e565b5090565b60008115159050919050565b610c7f81610c6a565b82525050565b6000602082019050610c9a6000830184610c76565b92915050565b6000604051905090565b600080fd5b600080fd5b600080fd5b600080fd5b6000601f19601f8301169050919050565b7f4e487b7100000000000000000000000000000000000000000000000000000000600052604160045260246000fd5b610d0782610cbe565b810181811067ffffffffffffffff82111715610d2657610d25610ccf565b5b80604052505050565b6000610d39610ca0565b9050610d458282610cfe565b919050565b600067ffffffffffffffff821115610d6557610d64610ccf565b5b610d6e82610cbe565b9050602081019050919050565b82818337600083830152505050565b6000610d9d610d9884610d4a565b610d2f565b905082815260208101848484011115610db957610db8610cb9565b5b610dc4848285610d7b565b509392505050565b600082601f830112610de157610de0610cb4565b5b8135610df1848260208601610d8a565b91505092915050565b6000819050919050565b610e0d81610dfa565b8114610e1857600080fd5b50565b600081359050610e2a81610e04565b92915050565b600080600060608486031215610e4957610e48610caa565b5b600084013567ffffffffffffffff811115610e6757610e66610caf565b5b610e7386828701610dcc565b935050602084013567ffffffffffffffff811115610e9457610e93610caf565b5b610ea086828701610dcc565b9250506040610eb186828701610e1b565b9150509250925092565b610ec481610dfa565b82525050565b6000602082019050610edf6000830184610ebb565b92915050565b600073ffffffffffffffffffffffffffffffffffffffff82169050919050565b6000610f1082610ee5565b9050919050565b610f2081610f05565b82525050565b6000602082019050610f3b6000830184610f17565b92915050565b600060208284031215610f5757610f56610caa565b5b6000610f6584828501610e1b565b91505092915050565b600081519050919050565b600082825260208201905092915050565b60005b83811015610fa8578082015181840152602081019050610f8d565b83811115610fb7576000848401525b50505050565b6000610fc882610f6e565b610fd28185610f79565b9350610fe2818560208601610f8a565b610feb81610cbe565b840191505092915050565b600061100182610ee5565b9050919050565b61101181610ff6565b82525050565b600060c08201905081810360008301526110318189610fbd565b905081810360208301526110458188610fbd565b90506110546040830187610ebb565b6110616060830186610ebb565b61106e6080830185611008565b61107b60a0830184610c76565b979650505050505050565b61108f81610f05565b811461109a57600080fd5b50565b6000813590506110ac81611086565b92915050565b6000602082840312156110c8576110c7610caa565b5b60006110d68482850161109d565b91505092915050565b7f5061757361626c653a2070617573656400000000000000000000000000000000600082015250565b6000611115601083610f79565b9150611120826110df565b602082019050919050565b6000602082019050818103600083015261114481611108565b9050919050565b7f4e487b7100000000000000000000000000000000000000000000000000000000600052601160045260246000fd5b600061118582610dfa565b915061119083610dfa565b9250827fffffffffffffffffffffffffffffffffffffffffffffffffffffffffffffffff038211156111c5576111c461114b565b5b828201905092915050565b7f4f776e61626c653a2063616c6c6572206973206e6f7420746865206f776e6572600082015250565b6000611206602083610f79565b9150611211826111d0565b602082019050919050565b60006020820190508181036000830152611235816111f9565b9050919050565b7f4e487b7100000000000000000000000000000000000000000000000000000000600052602260045260246000fd5b6000600282049050600182168061128357607f821691505b602082108114156112975761129661123c565b5b50919050565b7f4e6f2072652d656e7472616e6379000000000000000000000000000000000000600082015250565b60006112d3600e83610f79565b91506112de8261129d565b602082019050919050565b60006020820190508181036000830152611302816112c6565b9050919050565b60008190508160005260206000209050919050565b6000815461132b8161126b565b6113358186610f79565b94506001821660008114611350576001811461136257611395565b60ff1983168652602086019350611395565b61136b85611309565b60005b8381101561138d5781548189015260018201915060208101905061136e565b808801955050505b50505092915050565b600060c08201905081810360008301526113b8818961131e565b905081810360208301526113cc818861131e565b90506113db6040830187610ebb565b6113e86060830186610ebb565b6113f56080830185611008565b61140260a0830184610c76565b979650505050505050565b7f4f776e61626c653a206e6577206f776e657220697320746865207a65726f206160008201527f6464726573730000000000000000000000000000000000000000000000000000602082015250565b6000611469602683610f79565b91506114748261140d565b604082019050919050565b600060208201905081810360008301526114988161145c565b905091905056fea26469706673582212207ba59198b592bf398108d7939de68281f30c509e114ca5a2a6389e30967471e364736f6c634300080a0033",
  "immutableReferences": {},
  "source": "// SPDX-License-Identifier: MIT\npragma solidity >=0.5.16 ^0.8.0;\n\nimport \"@openzeppelin/contracts/security/Pausable.sol\";\nimport \"@openzeppelin/contracts/access/Ownable.sol\";\n\ncontract Jaslist is Pausable, Ownable {\n\n    // address owner;\n    uint public itemCount;\n    bool internal locked;\n\n    mapping (uint => Item) public items;\n    mapping (uint => address) itemToOwner;\n    \n    struct Item {\n        string name;\n        string description;\n        uint sku;\n        uint price;\n        address payable itemOwner;\n        bool purchased;\n    }\n    \n    constructor() Pausable() Ownable() {\n        // owner = msg.sender;\n        itemCount = 0;\n    }\n\n    event LogItemAdded(\n        string name,\n        string description,\n        uint sku,\n        uint price,\n        address payable itemOwner,\n        bool purchased\n    );\n\n    event LogItemSold(\n        string name,\n        string description,\n        uint sku,\n        uint price,\n        address payable itemOwner,\n        bool purchased\n    );\n\n    modifier noReentrant() {\n        require(!locked, \"No re-entrancy\");\n        locked = true;\n        _;\n        locked = false;\n    }\n    \n    modifier paidEnough(uint _price) {\n        require(msg.value >= _price);\n        _;\n    }\n\n    // modifier checkValue(uint _sku) {\n    //     _;\n    //     uint _price = items[_sku].price;\n    //     uint amountToRefund = msg.value - _price;\n    //     items[_sku].buyer.transfer(amountToRefund);\n    // }\n\n    // why does function need to return true?\n    function addItem(string memory _name, string memory _description, uint _price) public whenNotPaused() returns (bool) {\n\n        itemCount += 1;\n        \n        require(bytes(_name).length > 0);\n        require(_price > 0);\n        \n        items[itemCount] = Item({\n            name: _name,\n            description: _description,\n            sku: itemCount,\n            price: _price,\n            itemOwner: payable(msg.sender),\n            purchased: false\n        });\n        \n        emit LogItemAdded(_name, _description, items[itemCount].sku, _price, items[itemCount].itemOwner, items[itemCount].purchased);\n\n        return true;\n    }\n    \n    function buyItem(uint _sku) public payable paidEnough(items[_sku].price) noReentrant() whenNotPaused() {\n        \n        address payable _seller = items[_sku].itemOwner;\n        \n        require(_sku >= 0 && _sku <= itemCount);\n        require(items[_sku].purchased == false);\n        require(_seller != msg.sender);\n        \n        _seller.transfer(items[_sku].price);\n\n        items[_sku].itemOwner = payable(msg.sender);\n        items[_sku].purchased = true;\n        \n        emit LogItemSold(items[_sku].name, items[_sku].description, items[_sku].sku, items[_sku].price, items[_sku].itemOwner, items[_sku].purchased);\n    }\n\n    function pauseTransactions() private onlyOwner() {\n        _pause();\n    }\n\n    // function updateItemPrice(uint _sku, uint _price) public isOwner {\n    //     items[_sku].price = _price;\n    // }\n\n    // function itemNotForSale(uint _sku) public {\n    //     items[_sku].state = State.NotForSale;\n    // }\n\n    // function getItemsByOwner {\n\n    // }\n\n}\n\n",
  "sourcePath": "/Users/jsabio/dev/github/blockchain-developer-bootcamp-final-project/contracts/Jaslist.sol",
  "compiler": {
    "name": "solc",
    "version": "0.8.10+commit.fc410830.Emscripten.clang"
  },
  "schemaVersion": "3.4.3",
  "updatedAt": "2021-11-22T21:41:18.446Z",
  "devdoc": {
    "kind": "dev",
    "methods": {
      "owner()": {
        "details": "Returns the address of the current owner."
      },
      "paused()": {
        "details": "Returns true if the contract is paused, and false otherwise."
      },
      "renounceOwnership()": {
        "details": "Leaves the contract without owner. It will not be possible to call `onlyOwner` functions anymore. Can only be called by the current owner. NOTE: Renouncing ownership will leave the contract without an owner, thereby removing any functionality that is only available to the owner."
      },
      "transferOwnership(address)": {
        "details": "Transfers ownership of the contract to a new account (`newOwner`). Can only be called by the current owner."
      }
    },
    "version": 1
  },
  "userdoc": {
    "kind": "user",
    "methods": {},
    "version": 1
  }
}