{
  "contractName": "Jaslist",
  "abi": [
    {
      "inputs": [],
      "stateMutability": "nonpayable",
      "type": "constructor"
    },
    {
      "anonymous": false,
      "inputs": [
        {
          "indexed": false,
          "internalType": "string",
          "name": "name",
          "type": "string"
        },
        {
          "indexed": false,
          "internalType": "string",
          "name": "description",
          "type": "string"
        },
        {
          "indexed": false,
          "internalType": "uint256",
          "name": "sku",
          "type": "uint256"
        },
        {
          "indexed": false,
          "internalType": "uint256",
          "name": "price",
          "type": "uint256"
        },
        {
          "indexed": false,
          "internalType": "address payable",
          "name": "itemOwner",
          "type": "address"
        },
        {
          "indexed": false,
          "internalType": "bool",
          "name": "purchased",
          "type": "bool"
        }
      ],
      "name": "LogItemAdded",
      "type": "event"
    },
    {
      "anonymous": false,
      "inputs": [
        {
          "indexed": false,
          "internalType": "string",
          "name": "name",
          "type": "string"
        },
        {
          "indexed": false,
          "internalType": "string",
          "name": "description",
          "type": "string"
        },
        {
          "indexed": false,
          "internalType": "uint256",
          "name": "sku",
          "type": "uint256"
        },
        {
          "indexed": false,
          "internalType": "uint256",
          "name": "price",
          "type": "uint256"
        },
        {
          "indexed": false,
          "internalType": "address payable",
          "name": "itemOwner",
          "type": "address"
        },
        {
          "indexed": false,
          "internalType": "bool",
          "name": "purchased",
          "type": "bool"
        }
      ],
      "name": "LogItemSold",
      "type": "event"
    },
    {
      "anonymous": false,
      "inputs": [
        {
          "indexed": true,
          "internalType": "address",
          "name": "previousOwner",
          "type": "address"
        },
        {
          "indexed": true,
          "internalType": "address",
          "name": "newOwner",
          "type": "address"
        }
      ],
      "name": "OwnershipTransferred",
      "type": "event"
    },
    {
      "inputs": [],
      "name": "itemCount",
      "outputs": [
        {
          "internalType": "uint256",
          "name": "",
          "type": "uint256"
        }
      ],
      "stateMutability": "view",
      "type": "function"
    },
    {
      "inputs": [
        {
          "internalType": "uint256",
          "name": "",
          "type": "uint256"
        }
      ],
      "name": "items",
      "outputs": [
        {
          "internalType": "string",
          "name": "name",
          "type": "string"
        },
        {
          "internalType": "string",
          "name": "description",
          "type": "string"
        },
        {
          "internalType": "uint256",
          "name": "sku",
          "type": "uint256"
        },
        {
          "internalType": "uint256",
          "name": "price",
          "type": "uint256"
        },
        {
          "internalType": "address payable",
          "name": "itemOwner",
          "type": "address"
        },
        {
          "internalType": "bool",
          "name": "purchased",
          "type": "bool"
        }
      ],
      "stateMutability": "view",
      "type": "function"
    },
    {
      "inputs": [],
      "name": "owner",
      "outputs": [
        {
          "internalType": "address",
          "name": "",
          "type": "address"
        }
      ],
      "stateMutability": "view",
      "type": "function"
    },
    {
      "inputs": [],
      "name": "renounceOwnership",
      "outputs": [],
      "stateMutability": "nonpayable",
      "type": "function"
    },
    {
      "inputs": [
        {
          "internalType": "address",
          "name": "newOwner",
          "type": "address"
        }
      ],
      "name": "transferOwnership",
      "outputs": [],
      "stateMutability": "nonpayable",
      "type": "function"
    },
    {
      "inputs": [
        {
          "internalType": "string",
          "name": "_name",
          "type": "string"
        },
        {
          "internalType": "string",
          "name": "_description",
          "type": "string"
        },
        {
          "internalType": "uint256",
          "name": "_price",
          "type": "uint256"
        }
      ],
      "name": "addItem",
      "outputs": [
        {
          "internalType": "bool",
          "name": "",
          "type": "bool"
        }
      ],
      "stateMutability": "nonpayable",
      "type": "function"
    },
    {
      "inputs": [
        {
          "internalType": "uint256",
          "name": "_sku",
          "type": "uint256"
        }
      ],
      "name": "buyItem",
      "outputs": [],
      "stateMutability": "payable",
      "type": "function"
    },
    {
      "inputs": [
        {
          "internalType": "uint256",
          "name": "_sku",
          "type": "uint256"
        }
      ],
      "name": "fetchItemName",
      "outputs": [
        {
          "internalType": "string",
          "name": "name",
          "type": "string"
        }
      ],
      "stateMutability": "view",
      "type": "function"
    }
  ],
  "bytecode": "0x608060405234801561001057600080fd5b5061002d61002261003a60201b60201c565b61004260201b60201c565b6000600181905550610106565b600033905090565b60008060009054906101000a900473ffffffffffffffffffffffffffffffffffffffff169050816000806101000a81548173ffffffffffffffffffffffffffffffffffffffff021916908373ffffffffffffffffffffffffffffffffffffffff1602179055508173ffffffffffffffffffffffffffffffffffffffff168173ffffffffffffffffffffffffffffffffffffffff167f8be0079c531659141344cd1fd0a4f28419497f9722a3daafe3b4186f6b6457e060405160405180910390a35050565b61149e806101156000396000f3fe60806040526004361061007b5760003560e01c8063bfb231d21161004e578063bfb231d21461012a578063debc467b1461016c578063e7fb74c7146101a9578063f2fde38b146101c55761007b565b806364432eb8146100805780636bfb0d01146100bd578063715018a6146100e85780638da5cb5b146100ff575b600080fd5b34801561008c57600080fd5b506100a760048036038101906100a29190610e0d565b6101ee565b6040516100b49190610eb3565b60405180910390f35b3480156100c957600080fd5b506100d26103fa565b6040516100df9190610edd565b60405180910390f35b3480156100f457600080fd5b506100fd610400565b005b34801561010b57600080fd5b50610114610488565b6040516101219190610f39565b60405180910390f35b34801561013657600080fd5b50610151600480360381019061014c9190610f54565b6104b1565b6040516101639695949392919061102a565b60405180910390f35b34801561017857600080fd5b50610193600480360381019061018e9190610f54565b61062a565b6040516101a09190611099565b60405180910390f35b6101c360048036038101906101be9190610f54565b6106d2565b005b3480156101d157600080fd5b506101ec60048036038101906101e791906110e7565b610a16565b005b600060018060008282546102029190611143565b92505081905550600084511161021757600080fd5b6000821161022457600080fd5b6040518060c0016040528085815260200184815260200160015481526020018381526020013373ffffffffffffffffffffffffffffffffffffffff16815260200160001515815250600360006001548152602001908152602001600020600082015181600001908051906020019061029d929190610bda565b5060208201518160010190805190602001906102ba929190610bda565b50604082015181600201556060820151816003015560808201518160040160006101000a81548173ffffffffffffffffffffffffffffffffffffffff021916908373ffffffffffffffffffffffffffffffffffffffff16021790555060a08201518160040160146101000a81548160ff0219169083151502179055509050507f1f01f1a097bc2f44af6e389d4541811341cd95b78fe88f461160f4674b8d2aec8484600360006001548152602001908152602001600020600201548560036000600154815260200190815260200160002060040160009054906101000a900473ffffffffffffffffffffffffffffffffffffffff1660036000600154815260200190815260200160002060040160149054906101000a900460ff166040516103e79695949392919061102a565b60405180910390a1600190509392505050565b60015481565b610408610b0e565b73ffffffffffffffffffffffffffffffffffffffff16610426610488565b73ffffffffffffffffffffffffffffffffffffffff161461047c576040517f08c379a0000000000000000000000000000000000000000000000000000000008152600401610473906111e5565b60405180910390fd5b6104866000610b16565b565b60008060009054906101000a900473ffffffffffffffffffffffffffffffffffffffff16905090565b60036020528060005260406000206000915090508060000180546104d490611234565b80601f016020809104026020016040519081016040528092919081815260200182805461050090611234565b801561054d5780601f106105225761010080835404028352916020019161054d565b820191906000526020600020905b81548152906001019060200180831161053057829003601f168201915b50505050509080600101805461056290611234565b80601f016020809104026020016040519081016040528092919081815260200182805461058e90611234565b80156105db5780601f106105b0576101008083540402835291602001916105db565b820191906000526020600020905b8154815290600101906020018083116105be57829003601f168201915b5050505050908060020154908060030154908060040160009054906101000a900473ffffffffffffffffffffffffffffffffffffffff16908060040160149054906101000a900460ff16905086565b606060036000838152602001908152602001600020600001805461064d90611234565b80601f016020809104026020016040519081016040528092919081815260200182805461067990611234565b80156106c65780601f1061069b576101008083540402835291602001916106c6565b820191906000526020600020905b8154815290600101906020018083116106a957829003601f168201915b50505050509050919050565b6003600082815260200190815260200160002060030154803410156106f657600080fd5b600260009054906101000a900460ff1615610746576040517f08c379a000000000000000000000000000000000000000000000000000000000815260040161073d906112b2565b60405180910390fd5b6001600260006101000a81548160ff02191690831515021790555060006003600084815260200190815260200160002060040160009054906101000a900473ffffffffffffffffffffffffffffffffffffffff169050600083101580156107af57506001548311155b6107b857600080fd5b600015156003600085815260200190815260200160002060040160149054906101000a900460ff161515146107ec57600080fd5b3373ffffffffffffffffffffffffffffffffffffffff168173ffffffffffffffffffffffffffffffffffffffff16141561082557600080fd5b8073ffffffffffffffffffffffffffffffffffffffff166108fc60036000868152602001908152602001600020600301549081150290604051600060405180830381858888f19350505050158015610881573d6000803e3d6000fd5b50336003600085815260200190815260200160002060040160006101000a81548173ffffffffffffffffffffffffffffffffffffffff021916908373ffffffffffffffffffffffffffffffffffffffff16021790555060016003600085815260200190815260200160002060040160146101000a81548160ff0219169083151502179055507f79470704d7235ad859aca035d956a4162180be3971bccf62886a17deea760df96003600085815260200190815260200160002060000160036000868152602001908152602001600020600101600360008781526020019081526020016000206002015460036000888152602001908152602001600020600301546003600089815260200190815260200160002060040160009054906101000a900473ffffffffffffffffffffffffffffffffffffffff16600360008a815260200190815260200160002060040160149054906101000a900460ff166040516109ee96959493929190611367565b60405180910390a1506000600260006101000a81548160ff0219169083151502179055505050565b610a1e610b0e565b73ffffffffffffffffffffffffffffffffffffffff16610a3c610488565b73ffffffffffffffffffffffffffffffffffffffff1614610a92576040517f08c379a0000000000000000000000000000000000000000000000000000000008152600401610a89906111e5565b60405180910390fd5b600073ffffffffffffffffffffffffffffffffffffffff168173ffffffffffffffffffffffffffffffffffffffff161415610b02576040517f08c379a0000000000000000000000000000000000000000000000000000000008152600401610af990611448565b60405180910390fd5b610b0b81610b16565b50565b600033905090565b60008060009054906101000a900473ffffffffffffffffffffffffffffffffffffffff169050816000806101000a81548173ffffffffffffffffffffffffffffffffffffffff021916908373ffffffffffffffffffffffffffffffffffffffff1602179055508173ffffffffffffffffffffffffffffffffffffffff168173ffffffffffffffffffffffffffffffffffffffff167f8be0079c531659141344cd1fd0a4f28419497f9722a3daafe3b4186f6b6457e060405160405180910390a35050565b828054610be690611234565b90600052602060002090601f016020900481019282610c085760008555610c4f565b82601f10610c2157805160ff1916838001178555610c4f565b82800160010185558215610c4f579182015b82811115610c4e578251825591602001919060010190610c33565b5b509050610c5c9190610c60565b5090565b5b80821115610c79576000816000905550600101610c61565b5090565b6000604051905090565b600080fd5b600080fd5b600080fd5b600080fd5b6000601f19601f8301169050919050565b7f4e487b7100000000000000000000000000000000000000000000000000000000600052604160045260246000fd5b610ce482610c9b565b810181811067ffffffffffffffff82111715610d0357610d02610cac565b5b80604052505050565b6000610d16610c7d565b9050610d228282610cdb565b919050565b600067ffffffffffffffff821115610d4257610d41610cac565b5b610d4b82610c9b565b9050602081019050919050565b82818337600083830152505050565b6000610d7a610d7584610d27565b610d0c565b905082815260208101848484011115610d9657610d95610c96565b5b610da1848285610d58565b509392505050565b600082601f830112610dbe57610dbd610c91565b5b8135610dce848260208601610d67565b91505092915050565b6000819050919050565b610dea81610dd7565b8114610df557600080fd5b50565b600081359050610e0781610de1565b92915050565b600080600060608486031215610e2657610e25610c87565b5b600084013567ffffffffffffffff811115610e4457610e43610c8c565b5b610e5086828701610da9565b935050602084013567ffffffffffffffff811115610e7157610e70610c8c565b5b610e7d86828701610da9565b9250506040610e8e86828701610df8565b9150509250925092565b60008115159050919050565b610ead81610e98565b82525050565b6000602082019050610ec86000830184610ea4565b92915050565b610ed781610dd7565b82525050565b6000602082019050610ef26000830184610ece565b92915050565b600073ffffffffffffffffffffffffffffffffffffffff82169050919050565b6000610f2382610ef8565b9050919050565b610f3381610f18565b82525050565b6000602082019050610f4e6000830184610f2a565b92915050565b600060208284031215610f6a57610f69610c87565b5b6000610f7884828501610df8565b91505092915050565b600081519050919050565b600082825260208201905092915050565b60005b83811015610fbb578082015181840152602081019050610fa0565b83811115610fca576000848401525b50505050565b6000610fdb82610f81565b610fe58185610f8c565b9350610ff5818560208601610f9d565b610ffe81610c9b565b840191505092915050565b600061101482610ef8565b9050919050565b61102481611009565b82525050565b600060c08201905081810360008301526110448189610fd0565b905081810360208301526110588188610fd0565b90506110676040830187610ece565b6110746060830186610ece565b611081608083018561101b565b61108e60a0830184610ea4565b979650505050505050565b600060208201905081810360008301526110b38184610fd0565b905092915050565b6110c481610f18565b81146110cf57600080fd5b50565b6000813590506110e1816110bb565b92915050565b6000602082840312156110fd576110fc610c87565b5b600061110b848285016110d2565b91505092915050565b7f4e487b7100000000000000000000000000000000000000000000000000000000600052601160045260246000fd5b600061114e82610dd7565b915061115983610dd7565b9250827fffffffffffffffffffffffffffffffffffffffffffffffffffffffffffffffff0382111561118e5761118d611114565b5b828201905092915050565b7f4f776e61626c653a2063616c6c6572206973206e6f7420746865206f776e6572600082015250565b60006111cf602083610f8c565b91506111da82611199565b602082019050919050565b600060208201905081810360008301526111fe816111c2565b9050919050565b7f4e487b7100000000000000000000000000000000000000000000000000000000600052602260045260246000fd5b6000600282049050600182168061124c57607f821691505b602082108114156112605761125f611205565b5b50919050565b7f4e6f2072652d656e7472616e6379000000000000000000000000000000000000600082015250565b600061129c600e83610f8c565b91506112a782611266565b602082019050919050565b600060208201905081810360008301526112cb8161128f565b9050919050565b60008190508160005260206000209050919050565b600081546112f481611234565b6112fe8186610f8c565b94506001821660008114611319576001811461132b5761135e565b60ff198316865260208601935061135e565b611334856112d2565b60005b8381101561135657815481890152600182019150602081019050611337565b808801955050505b50505092915050565b600060c082019050818103600083015261138181896112e7565b9050818103602083015261139581886112e7565b90506113a46040830187610ece565b6113b16060830186610ece565b6113be608083018561101b565b6113cb60a0830184610ea4565b979650505050505050565b7f4f776e61626c653a206e6577206f776e657220697320746865207a65726f206160008201527f6464726573730000000000000000000000000000000000000000000000000000602082015250565b6000611432602683610f8c565b915061143d826113d6565b604082019050919050565b6000602082019050818103600083015261146181611425565b905091905056fea264697066735822122062a22526e381769c6e43c518ba86666ac08c2db305352bdd698ef695ddf6142d64736f6c634300080a0033",
  "immutableReferences": {},
  "source": "pragma solidity >=0.5.16 ^0.8.0;\n\n// update updateItemPrice to use verifyCaller as modifier\n// if implementing ERC721 standard what functions will functions need to be omitted?\n// how to remove item?\n// need to declare state arrays?\n\nimport \"@openzeppelin/contracts/access/Ownable.sol\";\n\ncontract Jaslist is Ownable {\n\n    // admin can open/close Jaslist; will receive unused eth if closed\n    // address public admin;\n\n    // address owner;\n    uint public itemCount;\n    bool internal locked;\n\n    mapping (uint => Item) public items;\n    mapping (uint => address) itemToOwner; //maps item to owner\n    // mapping (address => uint) ownerItemCount; //maps amount of items an owner has\n    // mapping (address => User) users;\n\n    // struct User {\n    //     address userAddress,\n    //     bool isSeller,\n    //     bool exists\n    // }\n    \n    struct Item {\n        string name;\n        string description;\n        uint sku;\n        uint price;\n        address payable itemOwner;\n        bool purchased;\n    }\n    \n    // User[] users;\n    // Item[] items; // dynamic Array of Item struct ((Item[] public items;))// getter method is automatically created; other contracts can read from this array\n\n    // enum State {\n    //     ForSale,\n    //     Sold,\n    //     Transferred,\n    //     Received,\n    //     NotForSale\n    // }\n\n    // State public state;\n    \n    constructor() {\n        // owner = msg.sender;\n        itemCount = 0;\n    }\n\n    event LogItemAdded(\n        string name,\n        string description,\n        uint sku,\n        uint price,\n        address payable itemOwner,\n        bool purchased\n    );\n\n    event LogItemSold(\n        string name,\n        string description,\n        uint sku,\n        uint price,\n        address payable itemOwner,\n        bool purchased\n    );\n\n    // event LogItemTransferred(uint sku);\n    // event LogItemReceived(uint sku);\n\n    // modifier isOwner() {\n    //     require(msg.sender == owner);\n    //     _;\n    // }\n\n    modifier noReentrant() {\n        require(!locked, \"No re-entrancy\");\n        locked = true;\n        _;\n        locked = false;\n    }\n    \n    modifier paidEnough(uint _price) {\n        require(msg.value >= _price);\n        _;\n    }\n    \n    // modifier forSale(uint _sku) {\n    //     require(items[_sku].owner != address(0));\n    //     require(items[_sku].state == State.ForSale, \"Item is not for sale.\");\n    //     _;\n    // }\n\n    // modifier sold(uint _sku) {\n    //     require(items[_sku].state == State.Sold, \"Item has not been sold.\");\n    //     _;\n    // }\n\n    // modifier transferred(uint _sku) {\n    //     require(items[_sku].state == State.Transferred, \"Item has not yet been transferred.\");\n    //     _;\n    // }\n\n    // modifier checkValue(uint _sku) {\n    //     _;\n    //     uint _price = items[_sku].price;\n    //     uint amountToRefund = msg.value - _price;\n    //     items[_sku].buyer.transfer(amountToRefund);\n    // }\n\n    // modifier verifyCaller(address _address) {\n    //     require(msg.sender == _address);\n    //     _;\n    // }\n\n    // why does function need to return true?\n    function addItem(string memory _name, string memory _description, uint _price) public returns (bool) {\n\n        itemCount += 1;\n        \n        require(bytes(_name).length > 0);\n        require(_price > 0);\n        \n        items[itemCount] = Item({\n            name: _name,\n            description: _description,\n            sku: itemCount,\n            price: _price,\n            itemOwner: payable(msg.sender),\n            purchased: false\n        });\n        \n        emit LogItemAdded(_name, _description, items[itemCount].sku, _price, items[itemCount].itemOwner, items[itemCount].purchased);\n\n        return true;\n    }\n    \n    \n    // test this function; dapp university 1:08:54\n    function buyItem(uint _sku) public payable paidEnough(items[_sku].price) noReentrant() {\n        \n        address payable _seller = items[_sku].itemOwner;\n        \n        require(_sku >= 0 && _sku <= itemCount);\n        require(items[_sku].purchased == false);\n        require(_seller != msg.sender);\n        \n        _seller.transfer(items[_sku].price);\n\n        items[_sku].itemOwner = payable(msg.sender);\n        items[_sku].purchased = true;\n        \n        emit LogItemSold(items[_sku].name, items[_sku].description, items[_sku].sku, items[_sku].price, items[_sku].itemOwner, items[_sku].purchased);\n    }\n\n    // function transferItem(uint _sku) public sold(_sku) {\n    //     items[_sku].state = State.Transferred;\n\n    //     emit LogItemTransferred(_sku);\n    // }\n\n    // function receiveItem(uint _sku) public transferred(_sku) {\n    //     items[_sku].state = State.Received;\n\n    //     emit LogItemReceived(_sku);\n    // }\n\n    function fetchItemName(uint _sku) public view returns (string memory name) {\n        name = items[_sku].name;\n        // description = items[_sku].description;\n        // sku = items[_sku].sku;\n        // price = items[_sku].price;\n        // state = uint(items[_sku].state);\n        // buyer = items[_sku].buyer;\n        // seller = items[_sku].seller;\n        \n        return (name);\n    }\n\n    // function updateItemPrice(uint _sku, uint _price) public isOwner {\n    //     items[_sku].price = _price;\n    // }\n\n    // function itemNotForSale(uint _sku) public {\n    //     items[_sku].state = State.NotForSale;\n    // }\n\n    // function getItemsByOwner {\n\n    // }\n\n}\n\n",
  "sourcePath": "/Users/jsabio/dev/github/blockchain-developer-bootcamp-final-project/contracts/Jaslist.sol",
  "compiler": {
    "name": "solc",
    "version": "0.8.10+commit.fc410830.Emscripten.clang"
  },
  "schemaVersion": "3.4.3",
  "updatedAt": "2021-11-22T19:13:45.511Z",
  "devdoc": {
    "kind": "dev",
    "methods": {
      "owner()": {
        "details": "Returns the address of the current owner."
      },
      "renounceOwnership()": {
        "details": "Leaves the contract without owner. It will not be possible to call `onlyOwner` functions anymore. Can only be called by the current owner. NOTE: Renouncing ownership will leave the contract without an owner, thereby removing any functionality that is only available to the owner."
      },
      "transferOwnership(address)": {
        "details": "Transfers ownership of the contract to a new account (`newOwner`). Can only be called by the current owner."
      }
    },
    "version": 1
  },
  "userdoc": {
    "kind": "user",
    "methods": {},
    "version": 1
  }
}