{
  "contractName": "Jaslist",
  "abi": [
    {
      "inputs": [],
      "payable": false,
      "stateMutability": "nonpayable",
      "type": "constructor"
    },
    {
      "anonymous": false,
      "inputs": [
        {
          "indexed": false,
          "internalType": "uint256",
          "name": "sku",
          "type": "uint256"
        }
      ],
      "name": "LogItemAdded",
      "type": "event"
    },
    {
      "anonymous": false,
      "inputs": [
        {
          "indexed": false,
          "internalType": "uint256",
          "name": "sku",
          "type": "uint256"
        }
      ],
      "name": "LogItemReceived",
      "type": "event"
    },
    {
      "anonymous": false,
      "inputs": [
        {
          "indexed": false,
          "internalType": "uint256",
          "name": "sku",
          "type": "uint256"
        }
      ],
      "name": "LogItemSold",
      "type": "event"
    },
    {
      "anonymous": false,
      "inputs": [
        {
          "indexed": false,
          "internalType": "uint256",
          "name": "sku",
          "type": "uint256"
        }
      ],
      "name": "LogItemTransferred",
      "type": "event"
    },
    {
      "constant": true,
      "inputs": [],
      "name": "sku",
      "outputs": [
        {
          "internalType": "uint256",
          "name": "",
          "type": "uint256"
        }
      ],
      "payable": false,
      "stateMutability": "view",
      "type": "function"
    },
    {
      "constant": true,
      "inputs": [],
      "name": "state",
      "outputs": [
        {
          "internalType": "enum Jaslist.State",
          "name": "",
          "type": "uint8"
        }
      ],
      "payable": false,
      "stateMutability": "view",
      "type": "function"
    },
    {
      "constant": false,
      "inputs": [
        {
          "internalType": "string",
          "name": "_name",
          "type": "string"
        },
        {
          "internalType": "string",
          "name": "_description",
          "type": "string"
        },
        {
          "internalType": "uint256",
          "name": "_price",
          "type": "uint256"
        }
      ],
      "name": "addItem",
      "outputs": [
        {
          "internalType": "bool",
          "name": "",
          "type": "bool"
        }
      ],
      "payable": false,
      "stateMutability": "nonpayable",
      "type": "function"
    },
    {
      "constant": false,
      "inputs": [
        {
          "internalType": "uint256",
          "name": "_sku",
          "type": "uint256"
        }
      ],
      "name": "buyItem",
      "outputs": [],
      "payable": true,
      "stateMutability": "payable",
      "type": "function"
    },
    {
      "constant": false,
      "inputs": [
        {
          "internalType": "uint256",
          "name": "_sku",
          "type": "uint256"
        }
      ],
      "name": "transferItem",
      "outputs": [],
      "payable": false,
      "stateMutability": "nonpayable",
      "type": "function"
    },
    {
      "constant": false,
      "inputs": [
        {
          "internalType": "uint256",
          "name": "_sku",
          "type": "uint256"
        }
      ],
      "name": "receiveItem",
      "outputs": [],
      "payable": false,
      "stateMutability": "nonpayable",
      "type": "function"
    },
    {
      "constant": true,
      "inputs": [
        {
          "internalType": "uint256",
          "name": "_sku",
          "type": "uint256"
        }
      ],
      "name": "fetchItemName",
      "outputs": [
        {
          "internalType": "string",
          "name": "name",
          "type": "string"
        }
      ],
      "payable": false,
      "stateMutability": "view",
      "type": "function"
    },
    {
      "constant": true,
      "inputs": [
        {
          "internalType": "uint256",
          "name": "_sku",
          "type": "uint256"
        }
      ],
      "name": "fetchItemPrice",
      "outputs": [
        {
          "internalType": "uint256",
          "name": "price",
          "type": "uint256"
        }
      ],
      "payable": false,
      "stateMutability": "view",
      "type": "function"
    },
    {
      "constant": false,
      "inputs": [
        {
          "internalType": "uint256",
          "name": "_sku",
          "type": "uint256"
        },
        {
          "internalType": "uint256",
          "name": "_price",
          "type": "uint256"
        }
      ],
      "name": "updateItemPrice",
      "outputs": [],
      "payable": false,
      "stateMutability": "nonpayable",
      "type": "function"
    },
    {
      "constant": false,
      "inputs": [
        {
          "internalType": "uint256",
          "name": "_sku",
          "type": "uint256"
        }
      ],
      "name": "itemNotForSale",
      "outputs": [],
      "payable": false,
      "stateMutability": "nonpayable",
      "type": "function"
    }
  ],
  "bytecode": "0x608060405234801561001057600080fd5b50336000806101000a81548173ffffffffffffffffffffffffffffffffffffffff021916908373ffffffffffffffffffffffffffffffffffffffff1602179055506000600181905550610f78806100686000396000f3fe6080604052600436106100915760003560e01c8063a26be99911610059578063a26be999146102fd578063bac0b46114610338578063c19d93fb14610387578063debc467b146103c0578063e7fb74c71461047457610091565b806321be3075146100965780632769b96b146100d15780633439fe22146101165780634462f40c1461015157806364432eb81461017c575b600080fd5b3480156100a257600080fd5b506100cf600480360360208110156100b957600080fd5b81019080803590602001909291905050506104a2565b005b3480156100dd57600080fd5b50610114600480360360408110156100f457600080fd5b8101908080359060200190929190803590602001909291905050506104dd565b005b34801561012257600080fd5b5061014f6004803603602081101561013957600080fd5b8101908080359060200190929190505050610555565b005b34801561015d57600080fd5b506101666106e9565b6040518082815260200191505060405180910390f35b34801561018857600080fd5b506102e36004803603606081101561019f57600080fd5b81019080803590602001906401000000008111156101bc57600080fd5b8201836020820111156101ce57600080fd5b803590602001918460018302840111640100000000831117156101f057600080fd5b91908080601f016020809104026020016040519081016040528093929190818152602001838380828437600081840152601f19601f8201169050808301925050505050505091929192908035906020019064010000000081111561025357600080fd5b82018360208201111561026557600080fd5b8035906020019184600183028401116401000000008311171561028757600080fd5b91908080601f016020809104026020016040519081016040528093929190818152602001838380828437600081840152601f19601f820116905080830192505050505050509192919290803590602001909291905050506106ef565b604051808215151515815260200191505060405180910390f35b34801561030957600080fd5b506103366004803603602081101561032057600080fd5b81019080803590602001909291905050506108d2565b005b34801561034457600080fd5b506103716004803603602081101561035b57600080fd5b8101908080359060200190929190505050610a48565b6040518082815260200191505060405180910390f35b34801561039357600080fd5b5061039c610a6b565b604051808260048111156103ac57fe5b60ff16815260200191505060405180910390f35b3480156103cc57600080fd5b506103f9600480360360208110156103e357600080fd5b8101908080359060200190929190505050610a7e565b6040518080602001828103825283818151815260200191508051906020019080838360005b8381101561043957808201518184015260208101905061041e565b50505050905090810190601f1680156104665780820380516001836020036101000a031916815260200191505b509250505060405180910390f35b6104a06004803603602081101561048a57600080fd5b8101908080359060200190929190505050610b39565b005b60046002600083815260200190815260200160002060040160006101000a81548160ff021916908360048111156104d557fe5b021790555050565b6000809054906101000a900473ffffffffffffffffffffffffffffffffffffffff1673ffffffffffffffffffffffffffffffffffffffff163373ffffffffffffffffffffffffffffffffffffffff161461053657600080fd5b8060026000848152602001908152602001600020600301819055505050565b6001546001600481111561056557fe5b6002600083815260200190815260200160002060040160009054906101000a900460ff16600481111561059457fe5b14610607576040517f08c379a00000000000000000000000000000000000000000000000000000000081526004018080602001828103825260178152602001807f4974656d20686173206e6f74206265656e20736f6c642e00000000000000000081525060200191505060405180910390fd5b6002600083815260200190815260200160002060050160009054906101000a900473ffffffffffffffffffffffffffffffffffffffff168073ffffffffffffffffffffffffffffffffffffffff163373ffffffffffffffffffffffffffffffffffffffff161461067657600080fd5b600280600085815260200190815260200160002060040160006101000a81548160ff021916908360048111156106a857fe5b02179055507ffde95764e72d15ead53e4d063fb78cd9aac2adb9592a31fc6fe93d3390c03ffb836040518082815260200191505060405180910390a1505050565b60015481565b60006040518060e0016040528085815260200184815260200160015481526020018381526020016000600481111561072357fe5b8152602001600073ffffffffffffffffffffffffffffffffffffffff1681526020013373ffffffffffffffffffffffffffffffffffffffff168152506002600060015481526020019081526020016000206000820151816000019080519060200190610790929190610e7c565b5060208201518160010190805190602001906107ad929190610e7c565b50604082015181600201556060820151816003015560808201518160040160006101000a81548160ff021916908360048111156107e657fe5b021790555060a08201518160040160016101000a81548173ffffffffffffffffffffffffffffffffffffffff021916908373ffffffffffffffffffffffffffffffffffffffff16021790555060c08201518160050160006101000a81548173ffffffffffffffffffffffffffffffffffffffff021916908373ffffffffffffffffffffffffffffffffffffffff1602179055509050506001600081548092919060010191905055507f7c6ddad0c69c862b2d126f21fbf47956d5028dbd0c436bc3c5b2c6dc0477dcad6001546040518082815260200191505060405180910390a1600190509392505050565b80600260048111156108e057fe5b6002600083815260200190815260200160002060040160009054906101000a900460ff16600481111561090f57fe5b14610965576040517f08c379a0000000000000000000000000000000000000000000000000000000008152600401808060200182810382526022815260200180610f226022913960400191505060405180910390fd5b6002600083815260200190815260200160002060040160019054906101000a900473ffffffffffffffffffffffffffffffffffffffff168073ffffffffffffffffffffffffffffffffffffffff163373ffffffffffffffffffffffffffffffffffffffff16146109d457600080fd5b60036002600085815260200190815260200160002060040160006101000a81548160ff02191690836004811115610a0757fe5b02179055507f851f44dcbd86b1093e4395b53c77dd80eade74627e99b86c32ff5f0ab0fa9def836040518082815260200191505060405180910390a1505050565b600060026000838152602001908152602001600020600301549050809050919050565b600460009054906101000a900460ff1681565b6060600260008381526020019081526020016000206000018054600181600116156101000203166002900480601f016020809104026020016040519081016040528092919081815260200182805460018160011615610100020316600290048015610b2a5780601f10610aff57610100808354040283529160200191610b2a565b820191906000526020600020905b815481529060010190602001808311610b0d57829003601f168201915b50505050509050809050919050565b80600073ffffffffffffffffffffffffffffffffffffffff166002600083815260200190815260200160002060050160009054906101000a900473ffffffffffffffffffffffffffffffffffffffff1673ffffffffffffffffffffffffffffffffffffffff161415610baa57600080fd5b60006004811115610bb757fe5b6002600083815260200190815260200160002060040160009054906101000a900460ff166004811115610be657fe5b14610c59576040517f08c379a00000000000000000000000000000000000000000000000000000000081526004018080602001828103825260158152602001807f4974656d206973206e6f7420666f722073616c652e000000000000000000000081525060200191505060405180910390fd5b600260008381526020019081526020016000206003015480341015610c7d57600080fd5b82336002600086815260200190815260200160002060040160016101000a81548173ffffffffffffffffffffffffffffffffffffffff021916908373ffffffffffffffffffffffffffffffffffffffff16021790555060016002600086815260200190815260200160002060040160006101000a81548160ff02191690836004811115610d0657fe5b02179055506002600085815260200190815260200160002060050160009054906101000a900473ffffffffffffffffffffffffffffffffffffffff1673ffffffffffffffffffffffffffffffffffffffff166108fc60026000878152602001908152602001600020600301549081150290604051600060405180830381858888f19350505050158015610d9d573d6000803e3d6000fd5b507f1f7277febc12b79864d2467444408c79b7eda869c2392048006bae11c55a0ec8846040518082815260200191505060405180910390a1600060026000838152602001908152602001600020600301549050600081340390506002600084815260200190815260200160002060040160019054906101000a900473ffffffffffffffffffffffffffffffffffffffff1673ffffffffffffffffffffffffffffffffffffffff166108fc829081150290604051600060405180830381858888f19350505050158015610e73573d6000803e3d6000fd5b50505050505050565b828054600181600116156101000203166002900490600052602060002090601f016020900481019282601f10610ebd57805160ff1916838001178555610eeb565b82800160010185558215610eeb579182015b82811115610eea578251825591602001919060010190610ecf565b5b509050610ef89190610efc565b5090565b610f1e91905b80821115610f1a576000816000905550600101610f02565b5090565b9056fe4974656d20686173206e6f7420796574206265656e207472616e736665727265642ea265627a7a723158209c2d30b8c9b6591afa28c6fef6e15084980dfb43d1d10b044eb02f07229706b364736f6c63430005100032",
  "source": "pragma solidity >=0.5.16 <0.9.0;\n\n// update updateItemPrice to use verifyCaller as modifier\n// if implementing ERC721 standard what functions will functions need to be omitted?\n// how to remove item?\n// need to declare state arrays?\n\ncontract Jaslist {\n\n    // admin can open/close Jaslist; will receive unused eth if closed\n    // address public admin;\n\n    address owner;\n    uint public sku; \n\n    mapping (uint => Item) items;\n    mapping (uint => address) itemToOwner; //maps item to owner\n    // mapping (address => uint) ownerItemCount; //maps amount of items an owner has\n    // mapping (address => User) users;\n\n    // struct User {\n    //     address userAddress,\n    //     bool isSeller,\n    //     bool exists\n    // }\n    \n    struct Item {\n        string name;\n        string description;\n        uint sku;\n        uint price;\n        State state;\n        address payable buyer;\n        address payable seller;\n    }\n    \n    // User[] users;\n    // Item[] items; // dynamic Array of Item struct ((Item[] public items;))// getter method is automatically created; other contracts can read from this array\n\n    enum State {\n        ForSale,\n        Sold,\n        Transferred,\n        Received,\n        NotForSale\n    }\n\n    State public state;\n    \n    constructor() public {\n        owner = msg.sender;\n        sku = 0;\n    }\n\n    event LogItemAdded(uint sku);\n    event LogItemSold(uint sku);\n    event LogItemTransferred(uint sku);\n    event LogItemReceived(uint sku);\n\n    modifier isOwner() {\n        require(msg.sender == owner);\n        _;\n    }\n    \n    modifier forSale(uint _sku) {\n        require(items[_sku].seller != address(0));\n        require(items[_sku].state == State.ForSale, \"Item is not for sale.\");\n        _;\n    }\n\n    modifier sold(uint _sku) {\n        require(items[_sku].state == State.Sold, \"Item has not been sold.\");\n        _;\n    }\n\n    modifier transferred(uint _sku) {\n        require(items[_sku].state == State.Transferred, \"Item has not yet been transferred.\");\n        _;\n    }\n\n    modifier paidEnough(uint _price) {\n        require(msg.value >= _price);\n        _;\n    }\n\n    modifier checkValue(uint _sku) {\n        _;\n        uint _price = items[_sku].price;\n        uint amountToRefund = msg.value - _price;\n        items[_sku].buyer.transfer(amountToRefund);\n    }\n\n    modifier verifyCaller(address _address) {\n        require(msg.sender == _address);\n        _;\n    }\n    \n    // func addUser(address _userAddress) {\n    //     msg.sender = _userAddress;\n    //     users[_userAddress] = User(_userAddress, false, true);\n    // }\n    \n    // func isSeller {\n    //     // checks to see if user can receive payment\n    // }\n\n    // why does function need to return true?\n    function addItem(string memory _name, string memory _description, uint _price) public returns (bool) {\n        items[sku] = Item({\n            name: _name,\n            description: _description,\n            sku: sku,\n            price: _price,\n            state: State.ForSale,\n            buyer: address(0),\n            seller: msg.sender\n        });\n\n        sku++;\n        emit LogItemAdded(sku);\n        return true;\n    }\n    \n    function buyItem(uint _sku) public payable forSale(_sku) paidEnough(items[_sku].price) checkValue(_sku) {\n        items[_sku].buyer = msg.sender;\n        items[_sku].state = State.Sold;\n        items[_sku].seller.transfer(items[_sku].price);\n        \n        emit LogItemSold(_sku);\n    }\n\n    function transferItem(uint _sku) public sold(sku) verifyCaller(items[_sku].seller) {\n        items[_sku].state = State.Transferred;\n\n        emit LogItemTransferred(_sku);\n    }\n\n    function receiveItem(uint _sku) public transferred(_sku) verifyCaller(items[_sku].buyer) {\n        items[_sku].state = State.Received;\n\n        emit LogItemReceived(_sku);\n    }\n\n    function fetchItemName(uint _sku) public view returns (string memory name) {\n        name = items[_sku].name;\n        // description = items[_sku].description;\n        // sku = items[_sku].sku;\n        // price = items[_sku].price;\n        // state = uint(items[_sku].state);\n        // buyer = items[_sku].buyer;\n        // seller = items[_sku].seller;\n        \n        return (name);\n    }\n\n    function fetchItemPrice(uint _sku) public view returns (uint price) {\n        // name = items[_sku].name;\n        // description = items[_sku].description;\n        // sku = items[_sku].sku;\n        price = items[_sku].price;\n        // state = uint(items[_sku].state);\n        // buyer = items[_sku].buyer;\n        // seller = items[_sku].seller;\n        \n        return (price);\n    }\n\n    function updateItemPrice(uint _sku, uint _price) public isOwner {\n        items[_sku].price = _price;\n    }\n\n    function itemNotForSale(uint _sku) public {\n        items[_sku].state = State.NotForSale;\n    }\n\n    // function getItemsByOwner {\n\n    // }\n\n}\n\n",
  "sourcePath": "/Users/jsabio/dev/github/blockchain-developer-bootcamp-final-project/contracts/Jaslist.sol",
  "compiler": {
    "name": "solc",
    "version": "0.5.16+commit.9c3226ce.Emscripten.clang"
  },
  "schemaVersion": "3.4.3",
  "updatedAt": "2021-11-16T15:49:39.217Z",
  "networkType": "ethereum",
  "devdoc": {
    "methods": {}
  },
  "userdoc": {
    "methods": {}
  }
}